:100000000C942A000C940D0D0C943A0D0C94670D71
:100010000C9447000C9447000C9447000C94470044
:100020000C9447000C9447000C9447000C94470034
:100030000C9447000C9490170C9447000C944700C4
:100040000C9442080C9447000C9447000C94470011
:100050000C94470011241FBECFE5D4E0DEBFCDBF16
:1000600011E0A0E6B0E0E0E7F0E302C005900D92F9
:10007000A838B107D9F711E0A8E8B1E001C01D9296
:10008000A33BB107E1F70E94D8130C9436180C94E7
:100090000000EF92FF920F931F937B018C0120E0F1
:1000A00030E040E05FE40E94F50388238CF0C80153
:1000B000B70120E030E040E05FE40E94C1010E940F
:1000C00055049B01AC01205030404040504806C0D0
:1000D000C801B7010E9455049B01AC01B901CA01D6
:1000E0001F910F91FF90EF900895A0E0B0E0EBE733
:1000F000F0E00C94BA17DC012B01FA019C919230CC
:1001000008F439C1EB018881823008F433C194309E
:1001100069F4843009F02FC111969C91119789815F
:10012000981709F428C1AFE7B0E025C1843009F47D
:1001300021C18230A9F4923009F01DC19A01AD01AC
:1001400088E0EA010990AE01E90109929E0181501F
:10015000C1F7E201898111969C918923818308C1AD
:10016000923009F407C112962D903C901397EB0141
:100170008A819B811496AD90BD90CD90DC901797AD
:10018000EC80FD800E811F819101281B390BB90184
:1001900037FF04C066277727621B730B6032710537
:1001A0000CF061C0121613066CF537014801062EDB
:1001B00004C096948794779467940A94D2F721E0C8
:1001C00030E040E050E004C0220F331F441F551FB1
:1001D0006A95D2F721503040404050402E213F21B7
:1001E00040235123211531054105510521F021E01E
:1001F00030E040E050E079018A01E628F72808293C
:1002000019293CC0232BD1F1260E371E350146019A
:10021000062E04C096948794779467940A94D2F734
:1002200021E030E040E050E004C0220F331F441FC3
:10023000551F6A95D2F721503040404050402A2146
:100240003B214C215D21211531054105510521F04E
:1002500021E030E040E050E059016A01A628B728CB
:10026000C828D9280BC0821593052CF01C01AA249C
:10027000BB24650103C0EE24FF24870111969C91E5
:10028000D20111968C91981709F445C0992339F041
:10029000A80197012A193B094C095D0906C0A6016E
:1002A00095012E193F09400B510B57FD08C01182D3
:1002B0003382228224833583468357831DC081E0A5
:1002C00081833382228288279927DC01821B930B4A
:1002D000A40BB50B84839583A683B7830DC0220F2F
:1002E000331F441F551F24833583468357838281E0
:1002F000938101979383828324813581468157813D
:10030000DA01C9010197A109B1098F5F9F4FAF4F72
:10031000BF4328F30BC0918333822282EA0CFB1C7B
:100320000C1D1D1DE482F5820683178383E0808304
:10033000248135814681578157FF1AC0C901AA27F8
:1003400097FDA095BA2F81709070A070B0705695EF
:10035000479537952795822B932BA42BB52B848318
:100360009583A683B7838281938101969383828349
:10037000DF0101C0D201CD01CDB7DEB7E2E10C94BF
:10038000D617A0E2B0E0E7ECF1E00C94C617698361
:100390007A838B839C832D833E834F835887E9E048
:1003A000EE2EF12CEC0EFD1ECE010196B7010E943F
:1003B00046068E010F5E1F4FCE010596B8010E94C2
:1003C00046068A8991E089278A8BC701B801AE0168
:1003D000475E5F4F0E9475000E947105A096E6E09F
:1003E0000C94E217A0E2B0E0E8EFF1E00C94C6173D
:1003F00069837A838B839C832D833E834F835887C5
:10040000F9E0EF2EF12CEC0EFD1ECE010196B701A6
:100410000E9446068E010F5E1F4FCE010596B80161
:100420000E944606C701B801AE01475E5F4F0E94B9
:1004300075000E947105A096E6E00C94E217A0E218
:10044000B0E0E5E2F2E00C94BA1769837A838B831B
:100450009C832D833E834F835887CE010196BE0136
:10046000675F7F4F0E944606CE010596BE016F5E14
:100470007F4F0E9446069985923088F089898230A4
:10048000C8F0943019F4823051F404C0843029F457
:10049000923081F48FE790E0C6C0923049F420E0BA
:1004A0009A858A89981321E02A87CE010996BBC0D4
:1004B000823049F420E09A858A89981321E02A8BBA
:1004C000CE014196B0C02D843E844F8458886D88FB
:1004D0007E888F88988CEE24FF248701AA24BB2471
:1004E000650140E050E060E070E0E0E0F0E0C10174
:1004F00081709070892BE9F0E60CF71C081D191D1E
:100500009A01AB012A0D3B1D4C1D5D1D80E090E062
:10051000A0E0B0E0E614F7040805190520F481E036
:1005200090E0A0E0B0E0BA01A901480F591F6A1F8E
:100530007B1FAA0CBB1CCC1CDD1C97FE08C081E0F5
:1005400090E0A0E0B0E0A82AB92ACA2ADB2A3196B6
:10055000E032F10549F0660C771C881C991C569412
:10056000479437942794C3CFFA85EA892B893C892D
:100570008B859C85280F391F2E5F3F4F17C0CA01FE
:1005800081709070892B61F016950795F794E79428
:1005900080E090E0A0E0B0E8E82AF92A0A2B1B2BC3
:1005A00076956795579547952F5F3F4F77FDE7CF36
:1005B0000CC0440F551F661F771F17FD4160EE0CDE
:1005C000FF1C001F111F21503040403090E05907A0
:1005D00090E0690790E4790760F32B8F3C8FDB0193
:1005E000CA018F779070A070B07080349105A1051A
:1005F000B10561F447FD0AC0E114F10401051105DC
:1006000029F0405C5F4F6F4F7F4F40781A8EFE1786
:1006100011F081E08A8F4D8F5E8F6F8F78A383E01A
:10062000898FCE0149960E947105A096E2E10C9453
:10063000D617A8E1B0E0EFE1F3E00C94C2176983AC
:100640007A838B839C832D833E834F835887B9E0C5
:10065000EB2EF12CEC0EFD1ECE010196B7010E948F
:1006600046068E010F5E1F4FCE010596B8010E940F
:1006700046062985223008F47EC03989323010F4CC
:10068000B8017CC08A859A8989278A87243011F02D
:10069000223031F4231709F06EC06FE770E06EC0AE
:1006A000343039F41D861E861F86188A1C861B86E8
:1006B00004C0323021F484E08987B7015FC02B8504
:1006C0003C858B899C89281B390B3C872B87ED84C3
:1006D000FE840F851889AD88BE88CF88D88CEA142F
:1006E000FB040C051D0540F4EE0CFF1C001F111F40
:1006F000215030403C872B8720E030E040E050E044
:1007000080E090E0A0E0B0E460E070E0EA14FB0478
:100710000C051D0540F0282B392B4A2B5B2BEA18C2
:10072000FB080C091D09B695A79597958795EE0CC2
:10073000FF1C001F111F6F5F7F4F6F31710531F775
:10074000DA01C9018F779070A070B0708034910584
:10075000A105B10561F427FD0AC0E114F10401050A
:10076000110529F0205C3F4F4F4F5F4F20782D87B8
:100770003E874F87588BBE01675F7F4FCB010E943A
:1007800071056896EAE00C94DE17A8E1B0E0EBECA6
:10079000F3E00C94C61769837A838B839C832D8343
:1007A0003E834F83588789E0E82EF12CEC0EFD1E26
:1007B000CE010196B7010E9446068E010F5E1F4FC3
:1007C000CE010596B8010E9446068985823040F028
:1007D0008989823028F0C701B8010E94BE0601C095
:1007E0008FEF6896E6E00C94E217A8E1B0E0EBEF3B
:1007F000F3E00C94C61769837A838B839C832D83E3
:100800003E834F83588789E0E82EF12CEC0EFD1EC5
:10081000CE010196B7010E9446068E010F5E1F4F62
:10082000CE010596B8010E9446068985823040F0C7
:100830008989823028F0C701B8010E94BE0601C034
:100840008FEF6896E6E00C94E217A8E1B0E0EBE2E7
:10085000F4E00C94C61769837A838B839C832D8381
:100860003E834F83588789E0E82EF12CEC0EFD1E65
:10087000CE010196B7010E9446068E010F5E1F4F02
:10088000CE010596B8010E9446068985823040F067
:100890008989823028F0C701B8010E94BE0601C0D4
:1008A00081E06896E6E00C94E217ACE0B0E0EBE59E
:1008B000F4E00C94CA1769837A838B839C83CE01FE
:1008C0000196BE016B5F7F4F0E9446068D8182308C
:1008D00061F1823050F1843021F48E81882351F10E
:1008E0002EC02F81388537FD20C06E812F31310514
:1008F0001CF06623F9F023C08EE190E0821B930B7D
:1009000029853A854B855C8504C056954795379572
:1009100027958A95D2F76623B1F05095409530958A
:1009200021953F4F4F4F5F4F0EC020E030E040E039
:1009300050E009C02FEF3FEF4FEF5FE704C020E02A
:1009400030E040E050E8B901CA012C96E2E00C9496
:10095000E617A8E0B0E0EFEAF4E00C94C2177B01E0
:100960008C01611571058105910519F482E0898377
:1009700060C083E089838EE1C82ED12CDC82CB82DB
:10098000ED82FE820F831887C801B7010E942205FD
:10099000FC013197F7FF3BC0222733272E1B3F0B6B
:1009A00057016801022E04C0D694C794B794A79447
:1009B0000A94D2F740E050E060E070E081E090E01F
:1009C000A0E0B0E004C0880F991FAA1FBB1F2A95A2
:1009D000D2F70197A109B1098E219F21A023B1234C
:1009E0000097A105B10521F041E050E060E070E022
:1009F0004A295B296C297D294D835E836F83788723
:100A00008EE190E08E1B9F0B9C838B8312C03097EE
:100A100081F00E2E04C0EE0CFF1C001F111F0A9463
:100A2000D2F7ED82FE820F831887CE1ADF0ADC82AE
:100A3000CB821A82CE0101960E9471052896EAE0C7
:100A40000C94DE17EF92FF920F931F937B018C01A2
:100A500080E0E81680E0F80681E0080780E01807EB
:100A600088F48FEFE816F1040105110531F028F044
:100A700088E090E0A0E0B0E017C080E090E0A0E067
:100A8000B0E012C080E0E81680E0F80680E00807D9
:100A900081E0180728F088E190E0A0E0B0E004C011
:100AA00080E190E0A0E0B0E020E230E040E050E003
:100AB000281B390B4A0B5B0B04C016950795F7945E
:100AC000E7948A95D2F7F701E957FF4F8081281BF9
:100AD000310941095109C9011F910F91FF90EF9010
:100AE0000895DF92EF92FF920F931F93FC01E48031
:100AF000F58006811781D1808081823048F480E0C2
:100B000090E0A0E1B0E0E82AF92A0A2B1B2BA5C04F
:100B1000843009F49FC0823021F4EE24FF24870141
:100B200005C0E114F1040105110519F4E0E0F0E05D
:100B300096C0628173819FEF623879070CF05BC0C9
:100B400022E83FEF261B370B2A3131052CF020E03D
:100B500030E040E050E02AC0B801A701022E04C0F6
:100B600076956795579547950A94D2F781E090E07E
:100B7000A0E0B0E004C0880F991FAA1FBB1F2A95F0
:100B8000D2F70197A109B1098E219F21A023B1239A
:100B90000097A105B10521F081E090E0A0E0B0E070
:100BA0009A01AB01282B392B4A2B5B2BDA01C901A7
:100BB0008F779070A070B07080349105A105B10559
:100BC00039F427FF09C0205C3F4F4F4F5F4F04C0EF
:100BD000215C3F4F4F4F5F4FE0E0F0E02030A0E05E
:100BE0003A07A0E04A07A0E45A0710F0E1E0F0E07D
:100BF00079018A0127C06038710564F5FB01E1586D
:100C0000FF4FD801C7018F779070A070B07080340B
:100C10009105A105B10539F4E7FE0DC080E490E02F
:100C2000A0E0B0E004C08FE390E0A0E0B0E0E80E08
:100C3000F91E0A1F1B1F17FF05C016950795F7948D
:100C4000E794319687E016950795F794E7948A958F
:100C5000D1F705C0EE24FF248701EFEFF0E06E2FFF
:100C6000679566276795902F9F77D794DD24D79453
:100C70008E2F8695492F462B582F5D29B701CA0123
:100C80001F910F91FF90EF90DF900895FC01DB0121
:100C9000408151812281622F6F7770E0221F2227CD
:100CA000221F9381892F880F822B282F30E0991FD4
:100CB0009927991F11969C93119721153105A9F534
:100CC000411551056105710511F482E037C082E8D4
:100CD0009FEF13969C938E9312979A01AB0167E056
:100CE000220F331F441F551F6A95D1F783E08C9361
:100CF0000DC0220F331F441F551F12968D919C91DA
:100D00001397019713969C938E931297203080E04F
:100D1000380780E0480780E4580758F314962D936D
:100D20003D934D935C93179708952F3F310579F4C8
:100D3000411551056105710519F484E08C930895FE
:100D400064FF03C081E08C9312C01C9210C02F5727
:100D5000304013963C932E93129783E08C9387E058
:100D6000440F551F661F771F8A95D1F7706414963C
:100D70004D935D936D937C93179708951F93DC01BA
:100D8000FB019C91923008F447C08081823008F4C6
:100D900043C0943051F411961C91843099F58181AF
:100DA000682F70E0611B71093FC0843021F09230E0
:100DB00031F48230B9F18181882389F12DC01196F7
:100DC0001C9111978230F1F081811817D9F4129695
:100DD0002D913C911397828193818217930794F010
:100DE00028173907BCF014968D919D910D90BC91F8
:100DF000A02D2481358146815781281739074A075C
:100E00005B0718F4112341F00AC082179307A40767
:100E1000B50740F4112319F061E070E005C06FEFF1
:100E20007FEF02C060E070E0CB011F910895DF9377
:100E3000CF93CDB7DEB7A7E2B0E0E7E2F0E0808184
:100E400080648C93A7E2B0E0E7E2F0E080818F77E6
:100E50008C93A7E2B0E0E7E2F0E080818F7D8C9395
:100E6000A6E2B0E0E6E2F0E0808184608C93A6E246
:100E7000B0E0E6E2F0E0808182608C93A6E2B0E030
:100E8000E6E2F0E0808181608C93A6E2B0E0E6E2E9
:100E9000F0E0808180688C93CF91DF910895DF939B
:100EA000CF930F92CDB7DEB78983A7E2B0E0E7E238
:100EB000F0E08081807E8C93A7E2B0E0E7E2F0E092
:100EC00090818981892B8C93A6E2B0E0E6E2F0E084
:100ED000808180648C93E6E2F0E08081882F90E04E
:100EE000807190700097B9F7A6E2B0E0E6E2F0E01A
:100EF000808180618C93E4E2F0E0808191810F90A9
:100F0000CF91DF910895DF93CF9300D000D000D030
:100F1000CDB7DEB78A837C836B835E834D8381E0AC
:100F200089838B819C81009739F48D819E81009704
:100F300019F483E089832EC081E08093910110929F
:100F400094018B819C8190938901809388018D818C
:100F50009E8190938B0180938A01A7E2B0E0E7E243
:100F6000F0E08081807E8C93A7E2B0E0E7E2F0E0E1
:100F700090818A81892B8C93A6E2B0E0E6E2F0E0D2
:100F8000808180648C93A6E2B0E0E6E2F0E08081AC
:100F900088608C93898126960FB6F894DEBF0FBEC9
:100FA000CDBFCF91DF910895DF93CF9300D00F9203
:100FB000CDB7DEB79B838A8381E089838A819B8159
:100FC000009719F483E0898356C0809191018823AA
:100FD00009F051C081E08093910181E080939401F8
:100FE000EA81FB818081918190938D0180938C01B6
:100FF000EA81FB818281938190938F0180938E019E
:10100000EA81FB818481882F90E090939301809303
:101010009201EA81FB818581968190938B01809377
:101020008A0110929001A7E2B0E0E7E2F0E080814F
:10103000807E8C93A7E2B0E0E7E2F0E0408120916F
:101040008C0130918D0180919001882F90E0F90101
:10105000E80FF91F8081842B8C93A6E2B0E0E6E2D2
:10106000F0E0808180648C93A6E2B0E0E6E2F0E0FC
:10107000808188608C9389810F900F900F90CF9121
:10108000DF9108951F920F920FB60F9211242F93A4
:101090003F934F935F936F937F938F939F93AF9300
:1010A000BF93EF93FF93DF93CF93CDB7DEB78091DC
:1010B00094018823B1F4A0918801B0918901E4E200
:1010C000F0E0808191818C93E0918A01F0918B0115
:1010D0000995A6E2B0E0E6E2F0E08081877F8C939C
:1010E0005AC080919401813009F055C020918E0141
:1010F00030918F0180919001882F90E0880F991F87
:10110000D901A80FB91FE4E2F0E080819181119626
:101110009C938E93809190018F5F8093900180913A
:101120009001882F90E09C01809192019091930111
:101130002817390779F410929101E0918A01F09112
:101140008B010995A6E2B0E0E6E2F0E08081877FBE
:101150008C9321C0A7E2B0E0E7E2F0E08081807EDE
:101160008C93A7E2B0E0E7E2F0E0408120918C01AF
:1011700030918D0180919001882F90E0F901E80F66
:10118000F91F8081842B8C93A6E2B0E0E6E2F0E0C8
:10119000808180648C93CF91DF91FF91EF91BF911B
:1011A000AF919F918F917F916F915F914F913F91FF
:1011B0002F910F900FBE0F901F901895DF93CF9334
:1011C000CDB7DEB727970FB6F894DEBF0FBECDBF01
:1011D00089836A834B838B81882309F074C089815A
:1011E000282F30E03F832E838E819F8181309105AF
:1011F00059F12E813F81223031052CF48E819F815F
:10120000009769F0D2C02E813F812230310589F1EB
:101210008E819F818330910509F440C0C6C0AAE346
:10122000B0E0EAE3F0E08081482F8A81282F30E0A7
:1012300081E090E0022E02C0880F991F0A94E2F725
:10124000809584238C93B1C0A7E3B0E0E7E3F0E09E
:101250008081482F8A81282F30E081E090E0022EA3
:1012600002C0880F991F0A94E2F7809584238C931B
:101270009CC0A4E3B0E0E4E3F0E08081482F8A81E1
:10128000282F30E081E090E0022E02C0880F991FE5
:101290000A94E2F7809584238C9387C0A1E3B0E0A1
:1012A000E1E3F0E08081482F8A81282F30E081E05F
:1012B00090E0022E02C0880F991F0A94E2F78095F1
:1012C00084238C9372C08B81813009F06EC0898138
:1012D000282F30E03D832C838C819D8181309105C6
:1012E00049F12C813D81223031052CF48C819D8186
:1012F000009761F05AC02C813D812230310571F197
:101300008C819D8183309105E9F14FC0AAE3B0E063
:10131000EAE3F0E08081482F8A81282F30E081E0E5
:1013200090E0022E02C0880F991F0A94E2F7842BE6
:101330008C933BC0A7E3B0E0E7E3F0E08081482F67
:101340008A81282F30E081E090E0022E02C0880FD1
:10135000991F0A94E2F7842B8C9327C0A4E3B0E092
:10136000E4E3F0E08081482F8A81282F30E081E09B
:1013700090E0022E02C0880F991F0A94E2F7842B96
:101380008C9313C0A1E3B0E0E1E3F0E08081482F4B
:101390008A81282F30E081E090E0022E02C0880F81
:1013A000991F0A94E2F7842B8C9327960FB6F89432
:1013B000DEBF0FBECDBFCF91DF910895DF93CF93F6
:1013C000CDB7DEB727970FB6F894DEBF0FBECDBFFF
:1013D00089836A834B838B81813009F06FC0898157
:1013E000282F30E03F832E838E819F8181309105AD
:1013F00049F12E813F81223031052CF48E819F816D
:10140000009761F0D2C02E813F812230310571F109
:101410008E819F8183309105E9F1C7C0ABE3B0E0D5
:10142000EBE3F0E08081482F8A81282F30E081E0D3
:1014300090E0022E02C0880F991F0A94E2F7842BD5
:101440008C93B3C0A8E3B0E0E8E3F0E08081482FDC
:101450008A81282F30E081E090E0022E02C0880FC0
:10146000991F0A94E2F7842B8C939FC0A5E3B0E008
:10147000E5E3F0E08081482F8A81282F30E081E089
:1014800090E0022E02C0880F991F0A94E2F7842B85
:101490008C938BC0A2E3B0E0E2E3F0E08081482FC0
:1014A0008A81282F30E081E090E0022E02C0880F70
:1014B000991F0A94E2F7842B8C9377C08B81882341
:1014C00009F073C08981282F30E03D832C838C8103
:1014D0009D818130910559F12C813D81223031056A
:1014E0002CF48C819D81009769F05FC02C813D8137
:1014F0002230310589F18C819D818330910509F479
:1015000040C053C0ABE3B0E0EBE3F0E08081482F94
:101510008A81282F30E081E090E0022E02C0880FFF
:10152000991F0A94E2F7809584238C933EC0A8E328
:10153000B0E0E8E3F0E08081482F8A81282F30E096
:1015400081E090E0022E02C0880F991F0A94E2F712
:10155000809584238C9329C0A5E3B0E0E5E3F0E017
:101560008081482F8A81282F30E081E090E0022E90
:1015700002C0880F991F0A94E2F7809584238C9308
:1015800014C0A2E3B0E0E2E3F0E08081482F8A815A
:10159000282F30E081E090E0022E02C0880F991FD2
:1015A0000A94E2F7809584238C9327960FB6F894DB
:1015B000DEBF0FBECDBFCF91DF910895DF93CF93F4
:1015C00000D000D000D0CDB7DEB789836A835C83BA
:1015D0004B838981282F30E03E832D838D819E812E
:1015E0008130910549F12D813E81223031052CF465
:1015F0008D819E81009761F05AC02D813E812230FD
:10160000310571F18D819E8183309105E9F14FC0E3
:10161000E9E3F0E08081482F8A81282F30E081E0E3
:1016200090E0022E02C0880F991F0A94E2F78423EB
:10163000EB81FC8180833BC0E6E3F0E08081482FB2
:101640008A81282F30E081E090E0022E02C0880FCE
:10165000991F0A94E2F78423EB81FC81808327C0E1
:10166000E3E3F0E08081482F8A81282F30E081E099
:1016700090E0022E02C0880F991F0A94E2F784239B
:10168000EB81FC81808313C0E0E3F0E08081482F90
:101690008A81282F30E081E090E0022E02C0880F7E
:1016A000991F0A94E2F78423EB81FC8180832696BC
:1016B0000FB6F894DEBF0FBECDBFCF91DF91089576
:1016C000DF93CF9300D000D000D0CDB7DEB78983B1
:1016D0006A838A81882379F58981282F30E03E83C7
:1016E0002D838D819E8181309105C9F02D813E81B0
:1016F000223031052CF48D819E81009761F050C01D
:101700002D813E812230310571F08D819E818330A3
:10171000910569F045C0EAE3F0E0108241C0E7E3DB
:10172000F0E010823DC0E4E3F0E0108239C0E1E374
:10173000F0E0108235C08A81813091F58981282FAF
:1017400030E03C832B838B819C8181309105D1F0EB
:101750002B813C81223031052CF48B819C810097B8
:1017600061F01EC02B813C812230310581F08B81DC
:101770009C818330910581F013C0EAE3F0E08FEFA4
:1017800080830EC0E7E3F0E08FEF808309C0E4E3DD
:10179000F0E08FEF808304C0E1E3F0E08FEF80831F
:1017A00026960FB6F894DEBF0FBECDBFCF91DF9166
:1017B0000895DF93CF9300D000D0CDB7DEB78983F3
:1017C0006A838981282F30E03C832B838B819C8125
:1017D00081309105D1F02B813C81223031052CF4F0
:1017E0008B819C81009761F01EC02B813C8122304F
:1017F000310581F08B819C818330910581F013C08C
:10180000EBE3F0E08A8180830EC0E8E3F0E08A81B8
:10181000808309C0E5E3F0E08A81808304C0E2E3CD
:10182000F0E08A8180830F900F900F900F90CF91FE
:10183000DF910895DF93CF9300D000D00F92CDB702
:10184000DEB789837B836A838981282F30E03D83DB
:101850002C838C819D8181309105E1F02C813D812B
:10186000223031052CF48C819D81009761F026C0D7
:101870002C813D8122303105A1F08C819D81833006
:101880009105B1F01BC0E9E3F0E08081EA81FB81C2
:10189000808314C0E6E3F0E08081EA81FB818083ED
:1018A0000DC0E3E3F0E08081EA81FB81808306C024
:1018B000E0E3F0E08081EA81FB8180830F900F906C
:1018C0000F900F900F90CF91DF910895DF93CF93FA
:1018D000CDB7DEB7A5E5B0E0E5E5F0E08081816059
:1018E0008C93A5E5B0E0E5E5F0E080818D7F8C93F9
:1018F000ABE5B0E0EBE5F0E0808180648C93CF91C4
:10190000DF910895DF93CF93CDB7DEB7A5E5B0E0C3
:10191000E5E5F0E0808184608C93A5E5B0E0E5E545
:10192000F0E08081877F8C93ABE5B0E0EBE5F0E001
:10193000808180688C93CF91DF910895DF93CF935E
:10194000CDB7DEB7A4E5B0E0E4E5F0E080818064E7
:101950008C93ABE5B0E0EBE5F0E0808180628C93A6
:10196000CF91DF910895DF93CF9300D00F92CDB741
:10197000DEB79B838A8381E089838A819B8100977C
:1019800039F08A819B81909396018093950102C0E2
:1019900083E0898389810F900F900F90CF91DF9121
:1019A0000895DF93CF9300D00F92CDB7DEB79B831E
:1019B0008A8381E089838A819B81009739F08A81BB
:1019C0009B81909398018093970102C083E0898363
:1019D00089810F900F900F90CF91DF910895DF9341
:1019E000CF9300D00F92CDB7DEB79B838A8381E07F
:1019F00089838A819B81009739F08A819B819093AA
:101A00009A018093990102C083E0898389810F90B4
:101A10000F900F90CF91DF9108951F920F920FB604
:101A20000F9211242F933F934F935F936F937F9364
:101A30008F939F93AF93BF93EF93FF93DF93CF93D6
:101A4000CDB7DEB7E0919501F09196010995CF9160
:101A5000DF91FF91EF91BF91AF919F918F917F9116
:101A60006F915F914F913F912F910F900FBE0F900B
:101A70001F9018951F920F920FB60F9211242F935B
:101A80003F934F935F936F937F938F939F93AF9306
:101A9000BF93EF93FF93DF93CF93CDB7DEB7E09182
:101AA0009701F09198010995CF91DF91FF91EF9106
:101AB000BF91AF919F918F917F916F915F914F9166
:101AC0003F912F910F900FBE0F901F9018951F926E
:101AD0000F920FB60F9211242F933F934F935F9362
:101AE0006F937F938F939F93AF93BF93EF93FF93E6
:101AF000DF93CF93CDB7DEB7E0919901F0919A01D2
:101B00000995CF91DF91FF91EF91BF91AF919F9197
:101B10008F917F916F915F914F913F912F910F9096
:101B20000FBE0F901F901895DF93CF93CDB7DEB700
:101B3000AFE5B0E0EFE5F0E0808180688C93CF9175
:101B4000DF910895DF93CF93CDB7DEB7AFE5B0E077
:101B5000EFE5F0E080818F778C93CF91DF9108954E
:101B6000DF93CF93CDB7DEB72F970FB6F894DEBFD4
:101B70000FBECDBF8F8780E061E040E00E94DE09AC
:101B800080E062E040E00E94DE0982E06F850E9412
:101B9000D90B80E063E041E00E94DE0980E090E044
:101BA000A0E0B0E48B879C87AD87BE876B857C8582
:101BB0008D859E8520E030E04AE753E40E941F02B5
:101BC000DC01CB018F839887A987BA876F817885DD
:101BD00089859A8520E030E040E85FE30E94250493
:101BE00088232CF481E090E09E838D833FC06F8139
:101BF000788589859A8520E03FEF4FE757E40E947A
:101C0000C50318164CF56B857C858D859E8520E077
:101C100030E040E251E40E941F02DC01CB01BC0134
:101C2000CD010E944900DC01CB019E838D830FC052
:101C300089E190E09C838B838B819C810197F1F7F4
:101C40009C838B838D819E8101979E838D838D8163
:101C50009E81009769F714C06F81788589859A8580
:101C60000E944900DC01CB019E838D838D819E8182
:101C70009A83898389819A810197F1F79A8389836D
:101C800080E063E040E00E94DE092F960FB6F894F2
:101C9000DEBF0FBECDBFCF91DF910895DF93CF930D
:101CA000CDB7DEB72F970FB6F894DEBF0FBECDBF0E
:101CB0008F8780E061E041E00E94DE0980E062E021
:101CC00040E00E94DE0982E06F850E94D90B80E02F
:101CD00063E041E00E94DE0980E090E0A0E0B0E433
:101CE0008B879C87AD87BE876B857C858D859E8520
:101CF00020E030E04AE753E40E941F02DC01CB0100
:101D00008F839887A987BA876F81788589859A8517
:101D100020E030E040E85FE30E94250488232CF4B3
:101D200081E090E09E838D833FC06F8178858985B7
:101D30009A8520E03FEF4FE757E40E94C50318164D
:101D40004CF56B857C858D859E8520E030E040E2FA
:101D500051E40E941F02DC01CB01BC01CD010E94B5
:101D60004900DC01CB019E838D830FC089E190E0A7
:101D70009C838B838B819C810197F1F79C838B8360
:101D80008D819E8101979E838D838D819E81009799
:101D900069F714C06F81788589859A850E9449000A
:101DA000DC01CB019E838D838D819E819A83898303
:101DB00089819A810197F1F79A83898380E063E0B2
:101DC00040E00E94DE092F960FB6F894DEBF0FBEEA
:101DD000CDBFCF91DF910895DF93CF93CDB7DEB71D
:101DE0002E970FB6F894DEBF0FBECDBF80E090E017
:101DF000A0E2B2E48B879C87AD87BE876B857C852C
:101E00008D859E8520E030E04AE753E40E941F0262
:101E1000DC01CB018F839887A987BA876F8178858A
:101E200089859A8520E030E040E85FE30E94250440
:101E300088232CF481E090E09E838D833FC06F81E6
:101E4000788589859A8520E03FEF4FE757E40E9427
:101E5000C50318164CF56B857C858D859E8520E025
:101E600030E040E251E40E941F02DC01CB01BC01E2
:101E7000CD010E944900DC01CB019E838D830FC000
:101E800089E190E09C838B838B819C810197F1F7A2
:101E90009C838B838D819E8101979E838D838D8111
:101EA0009E81009769F714C06F81788589859A852E
:101EB0000E944900DC01CB019E838D838D819E8130
:101EC0009A83898389819A810197F1F79A8389831B
:101ED00088E30E94B00D8CE00E94B00D81E00E946A
:101EE000B00D2E960FB6F894DEBF0FBECDBFCF91CA
:101EF000DF910895DF93CF9300D000D0CDB7DEB748
:101F000089836A838981282F30E03C832B838B81EE
:101F10009C81009731F02B813C812130310561F0AB
:101F200016C08A81803198F48A8180580E94B00D51
:101F30008A81809387010BC08A81803140F48A8135
:101F400080540E94B00D8A818F5E809387010F902C
:101F50000F900F900F90CF91DF910895DF93CF9363
:101F600000D000D0CDB7DEB79A8389836B834C83D2
:101F70008B816C810E947A0F89819A810E94C70FA0
:101F80000F900F900F900F90CF91DF910895DF93F6
:101F9000CF9300D00F92CDB7DEB79B838A8319828F
:101FA00015C08981803121F481E060E00E947A0FC0
:101FB0008981282F30E08A819B81FC01E20FF31F89
:101FC00080810E944E0E89818F5F89838981282FAD
:101FD00030E08A819B81FC01E20FF31F808188231E
:101FE00001F70F900F900F90CF91DF910895DF933D
:101FF000CF93CDB7DEB764970FB6F894DEBF0FBEB0
:10200000CDBF698B7A8B8B8B9C8B89899A899E013A
:102010002F5F3F4FB9014AE050E00E94F117CE0117
:1020200001960E94C70F64960FB6F894DEBF0FBEEC
:10203000CDBFCF91DF910895DF93CF93CDB7DEB7BA
:1020400081E00E94B00D81E080938701CF91DF9104
:102050000895DF93CF93CDB7DEB729970FB6F894E5
:10206000DEBF0FBECDBF89836A834B83ADE2B0E094
:10207000EDE2F0E0808180618C938B81282F30E04D
:102080003987288788859985009731F02885398593
:102090002130310549F00FC0ADE2B0E0EDE2F0E0F3
:1020A0008081877F8C9307C0ADE2B0E0EDE2F0E085
:1020B000808188608C938A81282F30E03F832E8333
:1020C0008E819F81009731F02E813F812130310533
:1020D00049F00FC0ADE2B0E0EDE2F0E080818B7F2F
:1020E0008C9307C0ADE2B0E0EDE2F0E08081846067
:1020F0008C938981282F30E03D832C838C819D81B6
:102100008330910509F470C02C813D812430310564
:1021100084F48C819D8181309105D1F12C813D81A8
:10212000223031050CF04AC08C819D810097D1F09E
:10213000C8C02C813D812530310509F481C08C81D6
:102140009D81853091050CF465C02C813D81263040
:10215000310509F48BC08C819D818730910509F48C
:102160009BC0AFC0ADE2B0E0EDE2F0E080818E7FD9
:102170008C93ADE2B0E0EDE2F0E080818D7F8C9356
:10218000AEE2B0E0EEE2F0E080818E7F8C9399C009
:10219000ADE2B0E0EDE2F0E0808181608C93ADE2F1
:1021A000B0E0EDE2F0E080818D7F8C93AEE2B0E0B4
:1021B000EEE2F0E080818E7F8C9383C0ADE2B0E0F0
:1021C000EDE2F0E080818E7F8C93ADE2B0E0EDE255
:1021D000F0E0808182608C93AEE2B0E0EEE2F0E06D
:1021E00080818E7F8C936DC0ADE2B0E0EDE2F0E0D7
:1021F000808181608C93ADE2B0E0EDE2F0E080811F
:1022000082608C93AEE2B0E0EEE2F0E080818E7FFF
:102210008C9357C0ADE2B0E0EDE2F0E080818E7FBC
:102220008C93ADE2B0E0EDE2F0E080818D7F8C93A5
:10223000AEE2B0E0EEE2F0E0808181608C9341C0DC
:10224000ADE2B0E0EDE2F0E0808181608C93ADE240
:10225000B0E0EDE2F0E080818D7F8C93AEE2B0E003
:10226000EEE2F0E0808181608C932BC0ADE2B0E0C3
:10227000EDE2F0E080818E7F8C93ADE2B0E0EDE2A4
:10228000F0E0808182608C93AEE2B0E0EEE2F0E0BC
:10229000808181608C9315C0ADE2B0E0EDE2F0E0AA
:1022A000808181608C93ADE2B0E0EDE2F0E080816E
:1022B00082608C93AEE2B0E0EEE2F0E0808181607B
:1022C0008C93ADE2B0E0EDE2F0E0808180648C932D
:1022D00029960FB6F894DEBF0FBECDBFCF91DF9128
:1022E0000895DF93CF9300D000D000D0CDB7DEB7F4
:1022F00089836A83ADE2B0E0EDE2F0E080818F7E19
:102300008C938A81282F30E03E832D838D819E819E
:10231000009731F02D813E812130310549F00FC009
:10232000ADE2B0E0EDE2F0E08081877F8C9307C002
:10233000ADE2B0E0EDE2F0E0808188608C938981CD
:10234000282F30E03C832B838B819C81009731F0D8
:102350002B813C812130310549F00FC0ADE2B0E066
:10236000EDE2F0E080818B7F8C9307C0ADE2B0E0BE
:10237000EDE2F0E0808184608C93ADE2B0E0EDE2CC
:10238000F0E0808180648C9326960FB6F894DEBFCF
:102390000FBECDBFCF91DF910895DF93CF930F9202
:1023A000CDB7DEB78983EFE2F0E089818083EEE28A
:1023B000F0E080818823DCF7EFE2F0E080810F908D
:1023C000CF91DF910895DF93CF93CDB7DEB7AFE420
:1023D000B0E0EFE4F0E0808180688C93AFE4B0E09F
:1023E000EFE4F0E080818F7B8C93AFE4B0E0EFE42A
:1023F000F0E080818E7F8C93AFE4B0E0EFE4F0E01A
:10240000808182608C93AFE4B0E0EFE4F0E0808103
:1024100088608C93AFE4B0E0EFE4F0E0808180610D
:102420008C93AEE4B0E0EEE4F0E08081887F8C93A2
:10243000AEE4B0E0EEE4F0E08081826F8C93CF9167
:10244000DF910895DF93CF9300D0CDB7DEB79A83A5
:102450008983E6E4F0E089819A81918380830F90FB
:102460000F90CF91DF910895DF93CF9300D0CDB738
:10247000DEB79A838983EAE4F0E089819A819183C7
:1024800080830F900F90CF91DF910895DF93CF93CA
:102490000F92CDB7DEB78983EBE2F0E08081882F21
:1024A00090E0807290700097B9F3ECE2F0E08981DF
:1024B00080830F90CF91DF910895DF93CF93CDB7B5
:1024C000DEB7EBE2F0E080818823DCF7ECE2F0E0BD
:1024D0008081CF91DF910895DF93CF9300D00F9249
:1024E000CDB7DEB79B838A8319820EC08981282FDE
:1024F00030E08A819B81FC01E20FF31F80810E9402
:10250000461289818F5F89838981282F30E08A81F3
:102510009B81FC01E20FF31F8081882339F70F9024
:102520000F900F90CF91DF9108950F931F93DF933A
:10253000CF9300D000D00F92CDB7DEB79C838B83B2
:102540006D831A8281E089838B819C81009719F4C5
:1025500083E0898315C01A820FC08A81282F30E05A
:102560008B819C818C01020F131F0E945D12F80168
:1025700080838A818F5F8A839A818D81981768F31F
:1025800089810F900F900F900F900F90CF91DF9156
:102590001F910F910895DF93CF930F92CDB7DEB7C0
:1025A000EBE2F0E0808188231CF481E0898301C0A4
:1025B000198289810F90CF91DF910895DF93CF9396
:1025C000CDB7DEB72A970FB6F894DEBF0FBECDBFEA
:1025D0008A836B834C831982AAE2B0E0EAE2F0E0DE
:1025E000808188608C93AAE2B0E0EAE2F0E080812A
:1025F00080618C93AAE2B0E0EAE2F0E0808180683A
:102600008C93AAE2B0E0EAE2F0E0808180648C93EF
:102610008981806889838A81282F30E03A872987D9
:1026200089859A85009731F029853A8521303105D1
:1026300029F007C08981877F898303C089818860E9
:1026400089838B81282F30E038872F838F8198856D
:1026500081309105E1F02F813885223031052CF44D
:102660008F819885009761F026C02F8138852230B0
:102670003105A1F08F81988583309105B1F01BC0A1
:1026800089818F7E898389818F7D898314C0898127
:102690008061898389818F7D89830DC089818F7E47
:1026A000898389818062898306C089818061898369
:1026B0008981806289838C81282F30E03E832D833D
:1026C0008D819E8182309105B1F12D813E81233033
:1026D000310554F48D819E81009789F02D813E81D2
:1026E00021303105D1F050C08D819E81833091051C
:1026F00081F12D813E8127303105C9F145C08981A5
:102700008D7F898389818B7F8983AAE2B0E0EAE2A9
:10271000F0E080818B7F8C9337C0898182608983D0
:1027200089818B7F8983AAE2B0E0EAE2F0E08081D0
:102730008B7F8C9329C089818D7F89838981846077
:102740008983AAE2B0E0EAE2F0E080818B7F8C939B
:102750001BC0898182608983898184608983AAE220
:10276000B0E0EAE2F0E080818B7F8C930DC089813C
:1027700082608983898184608983AAE2B0E0EAE289
:10278000F0E0808184608C9389818F7B8983E0E491
:10279000F0E089818083E9E2F0E083E380832A9698
:1027A0000FB6F894DEBF0FBECDBFCF91DF91089575
:1027B000DF93CF93CDB7DEB72E970FB6F894DEBF79
:1027C0000FBECDBF0E948F140E94D11480E090E014
:1027D000AAE7B3E48B879C87AD87BE876B857C8532
:1027E0008D859E8520E030E04AE753E40E941F0279
:1027F000DC01CB018F839887A987BA876F817885A1
:1028000089859A8520E030E040E85FE30E94250456
:1028100088232CF481E090E09E838D833FC06F81FC
:10282000788589859A8520E03FEF4FE757E40E943D
:10283000C50318164CF56B857C858D859E8520E03B
:1028400030E040E251E40E941F02DC01CB01BC01F8
:10285000CD010E944900DC01CB019E838D830FC016
:1028600089E190E09C838B838B819C810197F1F7B8
:102870009C838B838D819E8101979E838D838D8127
:102880009E81009769F714C06F81788589859A8544
:102890000E944900DC01CB019E838D838D819E8146
:1028A0009A83898389819A810197F1F79A83898331
:1028B00080E690E00E94C70F0E94E81480919F017B
:1028C0009091A001A091A101B091A201BC01CD0104
:1028D00020E030E040E252E40E94C503181614F4F0
:1028E0000E94C61580919C01882331F310929B01B0
:1028F0000FC080919B01882F90E0FC01EC55FE4FAA
:1029000080810E94CD1180919B018F5F80939B01FC
:1029100080919B01863068F310929C01CDCFDF93AC
:10292000CF93CDB7DEB781E064E040E00E94DE08DF
:1029300081E065E041E00E94DE0881E066E040E081
:102940000E94DE0881E067E041E00E94DE0883E04B
:1029500060E040E00E94DE0881E061E041E00E942A
:10296000DE0883E062E041E00E94DE0883E063E08D
:1029700040E00E94DE0882E061E00E94600B80E09F
:1029800061E041E00E94DE0880E062E041E00E94F8
:10299000DE0880E063E041E00E94DE08CF91DF9135
:1029A0000895DF93CF93CDB7DEB70E94170780E07D
:1029B00060E043E00E94DE1281E060E040E00E94BF
:1029C00029100E94EC0E0E94940DCF91DF91089582
:1029D000DF93CF93CDB7DEB72E970FB6F894DEBF57
:1029E0000FBECDBF80E00E944F0790939E01809361
:1029F0009D0120919D0130919E0186E990E0AC01FE
:102A0000249FC001259F900D349F900D1124CC016F
:102A1000A0E0B0E0BC01CD010E94A904DC01CB0123
:102A2000BC01CD0120E030E040EA50E40E941F02EA
:102A3000DC01CB01BC01CD0120E030ED4FEB54E4D3
:102A40000E941903DC01CB0180939F019093A001A8
:102A5000A093A101B093A20180E090E0AAE7B3E4C3
:102A60008B879C87AD87BE876B857C858D859E8592
:102A700020E030E04AE753E40E941F02DC01CB0172
:102A80008F839887A987BA876F81788589859A858A
:102A900020E030E040E85FE30E94250488232CF426
:102AA00081E090E09E838D833FC06F81788589852A
:102AB0009A8520E03FEF4FE757E40E94C5031816C0
:102AC0004CF56B857C858D859E8520E030E040E26D
:102AD00051E40E941F02DC01CB01BC01CD010E9428
:102AE0004900DC01CB019E838D830FC089E190E01A
:102AF0009C838B838B819C810197F1F79C838B83D3
:102B00008D819E8101979E838D838D819E8100970B
:102B100069F714C06F81788589859A850E9449007C
:102B2000DC01CB019E838D838D819E819A83898375
:102B300089819A810197F1F79A83898380E06DE01A
:102B40000E947A0F80919F019091A001A091A10114
:102B5000B091A201BC01CD010E944900DC01CB0172
:102B6000BC01CD010E94F70F8FED0E944E0E83E64F
:102B70000E944E0E80E20E944E0E2E960FB6F894E2
:102B8000DEBF0FBECDBFCF91DF910895DF93CF930E
:102B9000CDB7DEB7AA970FB6F894DEBF0FBECDBF94
:102BA00081E061E041E00E94DE091092A301FBC0D8
:102BB00083E062E041E00E94DE0981E060E00E9483
:102BC0007A0F8EE690E00E94C70F80E090E8ABE3BA
:102BD000B4E48FA398A7A9A7BAA76FA178A589A5E0
:102BE0009AA520E030E04AE753E40E941F02DC018E
:102BF000CB018BA39CA3ADA3BEA36BA17CA18DA194
:102C00009EA120E030E040E85FE30E942504882395
:102C10002CF481E090E09AA389A33FC06BA17CA132
:102C20008DA19EA120E03FEF4FE757E40E94C5032E
:102C300018164CF56FA178A589A59AA520E030E07B
:102C400040E251E40E941F02DC01CB01BC01CD0136
:102C50000E944900DC01CB019AA389A30FC089E13E
:102C600090E098A38F8F8F8D98A10197F1F798A38B
:102C70008F8F89A19AA101979AA389A389A19AA16B
:102C8000009769F714C06BA17CA18DA19EA10E9441
:102C90004900DC01CB019AA389A389A19AA19E8F47
:102CA0008D8F8D8D9E8D0197F1F79E8F8D8F83E097
:102CB00062E040E00E94DE0980E090E8ABE3B4E42B
:102CC000898F9A8FAB8FBC8F698D7A8D8B8D9C8D00
:102CD00020E030E04AE753E40E941F02DC01CB0110
:102CE0008D8B9E8BAF8BB88F6D897E898F89988DE8
:102CF00020E030E040E85FE30E94250488232CF4C4
:102D000081E090E09C8B8B8B3FC06D897E898F89A1
:102D1000988D20E03FEF4FE757E40E94C503181657
:102D20004CF5698D7A8D8B8D9C8D20E030E040E2F2
:102D300051E40E941F02DC01CB01BC01CD010E94C5
:102D40004900DC01CB019C8B8B8B0FC089E190E0AB
:102D50009A8B898B89899A890197F1F79A8B898B4C
:102D60008B899C8901979C8B8B8B8B899C89009785
:102D700069F714C06D897E898F89988D0E944900FA
:102D8000DC01CB019C8B8B8B8B899C89988B8F87EB
:102D90008F8598890197F1F7988B8F878091A30190
:102DA0008F5F8093A3018091A3018A3008F400CF44
:102DB0000E941C1080E090E0AAE7B3E48B879C8718
:102DC000AD87BE876B857C858D859E8520E030E054
:102DD0004AE753E40E941F02DC01CB018F839887EE
:102DE000A987BA876F81788589859A8520E030E048
:102DF00040E85FE30E94250488232CF481E090E002
:102E00009E838D833FC06F81788589859A8520E078
:102E10003FEF4FE757E40E94C50318164CF56B854A
:102E20007C858D859E8520E030E040E251E40E9463
:102E30001F02DC01CB01BC01CD010E944900DC0175
:102E4000CB019E838D830FC089E190E09C838B83AF
:102E50008B819C810197F1F79C838B838D819E816F
:102E600001979E838D838D819E81009769F714C0A1
:102E70006F81788589859A850E944900DC01CB01A4
:102E80009E838D838D819E819A83898389819A8196
:102E90000197F1F79A83898380E060E00E947A0FBE
:102EA00080E690E00E94C70F81E061E040E00E9470
:102EB000DE09AA960FB6F894DEBF0FBECDBFCF9144
:102EC000DF9108950F931F93DF93CF93CDB7DEB7B4
:102ED0000E94CB128823F9F010929B010FC08091C1
:102EE0009B01082F10E00E945D12F801EC55FE4F87
:102EF000808380919B018F5F80939B0180919B01D8
:102F0000863068F380919B01863029F410929B01F2
:102F100081E080939C01CF91DF911F910F910895E3
:102F20001F920F920FB60F9211242F933F934F933E
:102F30005F936F937F938F939F93AF93BF93EF9321
:102F4000FF93DF93CF93CDB7DEB70E946217CF9187
:102F5000DF91FF91EF91BF91AF919F918F917F9101
:102F60006F915F914F913F912F910F900FBE0F90F6
:102F70001F9018952F923F924F925F926F927F927F
:102F80008F929F92AF92BF92CF92DF92EF92FF9279
:102F90000F931F93CF93DF93CDB7DEB7CA1BDB0B25
:102FA0000FB6F894DEBF0FBECDBF09942A883988CA
:102FB00048885F846E847D848C849B84AA84B984D1
:102FC000C884DF80EE80FD800C811B81AA81B981DD
:102FD000CE0FD11D0FB6F894DEBF0FBECDBFED01F1
:102FE0000895FB019F01E8944230C4F04532B4F4E7
:102FF0004A3029F497FB1EF4909581959F4F642FDA
:1030000077270E942218805D8A330CF0895D8193B6
:10301000CB010097A1F716F45DE251931082C9012C
:103020000C941218DC01FC01672F71917723E1F7F2
:10303000329704C07C916D9370836291AE17BF0785
:10304000C8F30895AA1BBB1B51E107C0AA1FBB1FF1
:10305000A617B70710F0A61BB70B881F991F5A9524
:10306000A9F780959095BC01CD010895F894FFCF04
:1030700054656D70657261747572653A20002E2E0C
:103080002E2E2E466972696E672E2E2E2E2E000071
:10309000000000000000000001020203030303041B
:1030A00004040404040404050505050505050505D7
:1030B00005050505050505060606060606060606B7
:1030C00006060606060606060606060606060606A0
:1030D0000606060606060607070707070707070787
:1030E0000707070707070707070707070707070770
:1030F0000707070707070707070707070707070760
:10310000070707070707070707070707070707074F
:103110000707070707070708080808080808080836
:10312000080808080808080808080808080808081F
:10313000080808080808080808080808080808080F
:1031400008080808080808080808080808080808FF
:1031500008080808080808080808080808080808EF
:1031600008080808080808080808080808080808DF
:1031700008080808080808080808080808080808CF
:1031800008080808080808080808080808080808BF
:083190000808080808080801FE
:00000001FF
