:100000000C942A000C94D2090C94FF090C942C0A2D
:100010000C9447000C9447000C9447000C94470044
:100020000C9447000C9447000C9448100C94470023
:100030000C9447000C9447000C9447000C94470024
:100040000C9447000C9447000C9447000C94470014
:100050000C94470011241FBECFE5D4E0DEBFCDBF16
:1000600010E0A0E6B0E0ECE2FCE302C005900D92E7
:10007000A03EB107D9F710E0A0EEB0E001C01D929C
:10008000AB3FB107E1F70E94E6110C94141E0C94EB
:100090000000EF92FF920F931F937B018C0120E0F1
:1000A00030E040E05FE40E94490388238CF0C801FF
:1000B000B70120E030E040E05FE40E94C1010E940F
:1000C000A9039B01AC01205030404040504806C07D
:1000D000C801B7010E94A9039B01AC01B901CA0183
:1000E0001F910F91FF90EF900895A0E0B0E0EBE733
:1000F000F0E00C94981DDC012B01FA019C919230E8
:1001000008F439C1EB018881823008F433C194309E
:1001100069F4843009F02FC111969C91119789815F
:10012000981709F428C1A4EBB0E025C1843009F484
:1001300021C18230A9F4923009F01DC19A01AD01AC
:1001400088E0EA010990AE01E90109929E0181501F
:10015000C1F7E201898111969C918923818308C1AD
:10016000923009F407C112962D903C901397EB0141
:100170008A819B811496AD90BD90CD90DC901797AD
:10018000EC80FD800E811F819101281B390BB90184
:1001900037FF04C066277727621B730B6032710537
:1001A0000CF061C0121613066CF537014801062EDB
:1001B00004C096948794779467940A94D2F721E0C8
:1001C00030E040E050E004C0220F331F441F551FB1
:1001D0006A95D2F721503040404050402E213F21B7
:1001E00040235123211531054105510521F021E01E
:1001F00030E040E050E079018A01E628F72808293C
:1002000019293CC0232BD1F1260E371E350146019A
:10021000062E04C096948794779467940A94D2F734
:1002200021E030E040E050E004C0220F331F441FC3
:10023000551F6A95D2F721503040404050402A2146
:100240003B214C215D21211531054105510521F04E
:1002500021E030E040E050E059016A01A628B728CB
:10026000C828D9280BC0821593052CF01C01AA249C
:10027000BB24650103C0EE24FF24870111969C91E5
:10028000D20111968C91981709F445C0992339F041
:10029000A80197012A193B094C095D0906C0A6016E
:1002A00095012E193F09400B510B57FD08C01182D3
:1002B0003382228224833583468357831DC081E0A5
:1002C00081833382228288279927DC01821B930B4A
:1002D000A40BB50B84839583A683B7830DC0220F2F
:1002E000331F441F551F24833583468357838281E0
:1002F000938101979383828324813581468157813D
:10030000DA01C9010197A109B1098F5F9F4FAF4F72
:10031000BF4328F30BC0918333822282EA0CFB1C7B
:100320000C1D1D1DE482F5820683178383E0808304
:10033000248135814681578157FF1AC0C901AA27F8
:1003400097FDA095BA2F81709070A070B0705695EF
:10035000479537952795822B932BA42BB52B848318
:100360009583A683B7838281938101969383828349
:10037000DF0101C0D201CD01CDB7DEB7E2E10C94BF
:10038000B41DA0E2B0E0E7ECF1E00C94A41D698399
:100390007A838B839C832D833E834F835887E9E048
:1003A000EE2EF12CEC0EFD1ECE010196B7010E943F
:1003B000D2048E010F5E1F4FCE010596B8010E9438
:1003C000D2048A8991E089278A8BC701B801AE01DE
:1003D000475E5F4F0E9475000E94FD03A096E6E015
:1003E0000C94C01DA0E2B0E0E8EFF1E00C94A41D75
:1003F00069837A838B839C832D833E834F835887C5
:10040000F9E0EF2EF12CEC0EFD1ECE010196B701A6
:100410000E94D2048E010F5E1F4FCE010596B801D7
:100420000E94D204C701B801AE01475E5F4F0E942F
:1004300075000E94FD03A096E6E00C94C01DA0E2AA
:10044000B0E0E5E2F2E00C94981D69837A838B8337
:100450009C832D833E834F835887CE010196BE0136
:10046000675F7F4F0E94D204CE010596BE016F5E8A
:100470007F4F0E94D2049985923088F0898982301A
:10048000C8F0943019F4823051F404C0843029F457
:10049000923081F484EB90E0C6C0923049F420E0C1
:1004A0009A858A89981321E02A87CE010996BBC0D4
:1004B000823049F420E09A858A89981321E02A8BBA
:1004C000CE014196B0C02D843E844F8458886D88FB
:1004D0007E888F88988CEE24FF248701AA24BB2471
:1004E000650140E050E060E070E0E0E0F0E0C10174
:1004F00081709070892BE9F0E60CF71C081D191D1E
:100500009A01AB012A0D3B1D4C1D5D1D80E090E062
:10051000A0E0B0E0E614F7040805190520F481E036
:1005200090E0A0E0B0E0BA01A901480F591F6A1F8E
:100530007B1FAA0CBB1CCC1CDD1C97FE08C081E0F5
:1005400090E0A0E0B0E0A82AB92ACA2ADB2A3196B6
:10055000E032F10549F0660C771C881C991C569412
:10056000479437942794C3CFFA85EA892B893C892D
:100570008B859C85280F391F2E5F3F4F17C0CA01FE
:1005800081709070892B61F016950795F794E79428
:1005900080E090E0A0E0B0E8E82AF92A0A2B1B2BC3
:1005A00076956795579547952F5F3F4F77FDE7CF36
:1005B0000CC0440F551F661F771F17FD4160EE0CDE
:1005C000FF1C001F111F21503040403090E05907A0
:1005D00090E0690790E4790760F32B8F3C8FDB0193
:1005E000CA018F779070A070B07080349105A1051A
:1005F000B10561F447FD0AC0E114F10401051105DC
:1006000029F0405C5F4F6F4F7F4F40781A8EFE1786
:1006100011F081E08A8F4D8F5E8F6F8F78A383E01A
:10062000898FCE0149960E94FD03A096E2E10C94C9
:10063000B41DA8E1B0E0EFE1F3E00C94A41D6983E0
:100640007A838B839C832D833E834F83588789E0F5
:10065000E82EF12CEC0EFD1ECE010196B7010E9492
:10066000D2048E010F5E1F4FCE010596B8010E9485
:10067000D2048985823040F08989823028F0C70110
:10068000B8010E944A0501C08FEF6896E6E00C941D
:10069000C01DA8E1B0E0EFE4F3E00C94A41D698371
:1006A0007A838B839C832D833E834F83588789E095
:1006B000E82EF12CEC0EFD1ECE010196B7010E9432
:1006C000D2048E010F5E1F4FCE010596B8010E9425
:1006D000D2048985823040F08989823028F0C701B0
:1006E000B8010E944A0501C08FEF6896E6E00C94BD
:1006F000C01DA8E1B0E0EFE7F3E00C94A41D69830E
:100700007A838B839C832D833E834F83588789E034
:10071000E82EF12CEC0EFD1ECE010196B7010E94D1
:10072000D2048E010F5E1F4FCE010596B8010E94C4
:10073000D2048985823040F08989823028F0C7014F
:10074000B8010E944A0501C081E06896E6E00C9479
:10075000C01DACE0B0E0EFEAF3E00C94A81D6983A3
:100760007A838B839C83CE010196BE016B5F7F4FA2
:100770000E94D2048D81823061F1823050F1843048
:1007800021F48E81882351F12EC02F81388537FDC9
:1007900020C06E812F3131051CF06623F9F023C093
:1007A0008EE190E0821B930B29853A854B855C8511
:1007B00004C056954795379527958A95D2F76623B5
:1007C000B1F050954095309521953F4F4F4F5F4F79
:1007D0000EC020E030E040E050E009C02FEF3FEFD6
:1007E0004FEF5FE704C020E030E040E050E8B9019F
:1007F000CA012C96E2E00C94C41DDF92EF92FF92A6
:100800000F931F93FC01E480F58006811781D1804E
:100810008081823048F480E090E0A0E1B0E0E82AF6
:10082000F92A0A2B1B2BA5C0843009F49FC0823003
:1008300021F4EE24FF24870105C0E114F104010531
:10084000110519F4E0E0F0E096C0628173819FEF3A
:10085000623879070CF05BC022E83FEF261B370BAC
:100860002A3131052CF020E030E040E050E02AC091
:10087000B801A701022E04C0769567955795479554
:100880000A94D2F781E090E0A0E0B0E004C0880FC5
:10089000991FAA1FBB1F2A95D2F70197A109B10979
:1008A0008E219F21A023B1230097A105B10521F03E
:1008B00081E090E0A0E0B0E09A01AB01282B392B59
:1008C0004A2B5B2BDA01C9018F779070A070B07052
:1008D00080349105A105B10539F427FF09C0205CDA
:1008E0003F4F4F4F5F4F04C0215C3F4F4F4F5F4F13
:1008F000E0E0F0E02030A0E03A07A0E04A07A0E402
:100900005A0710F0E1E0F0E079018A0127C0603871
:10091000710564F5FB01E158FF4FD801C7018F77DE
:100920009070A070B07080349105A105B10539F4C4
:10093000E7FE0DC080E490E0A0E0B0E004C08FE3EB
:1009400090E0A0E0B0E0E80EF91E0A1F1B1F17FFA1
:1009500005C016950795F794E794319687E01695AC
:100960000795F794E7948A95D1F705C0EE24FF2404
:100970008701EFEFF0E06E2F679566276795902F60
:100980009F77D794DD24D7948E2F8695492F462BB9
:10099000582F5D29B701CA011F910F91FF90EF9069
:1009A000DF900895FC01DB01408151812281622F9B
:1009B0006F7770E0221F2227221F9381892F880FD3
:1009C000822B282F30E0991F9927991F11969C930D
:1009D000119721153105A9F54115510561057105DD
:1009E00011F482E037C082E89FEF13969C938E93B8
:1009F00012979A01AB0167E0220F331F441F551F66
:100A00006A95D1F783E08C930DC0220F331F441FEA
:100A1000551F12968D919C911397019713969C9355
:100A20008E931297203080E0380780E0480780E4FA
:100A3000580758F314962D933D934D935C93179755
:100A400008952F3F310579F4411551056105710570
:100A500019F484E08C93089564FF03C081E08C93C3
:100A600012C01C9210C02F57304013963C932E9307
:100A7000129783E08C9387E0440F551F661F771F02
:100A80008A95D1F7706414964D935D936D937C9322
:100A9000179708951F93DC01FB019C91923008F495
:100AA00047C08081823008F443C0943051F41196DD
:100AB0001C91843099F58181682F70E0611B710968
:100AC0003FC0843021F0923031F48230B9F181811D
:100AD000882389F12DC011961C9111978230F1F075
:100AE00081811817D9F412962D913C911397828128
:100AF00093818217930794F028173907BCF0149656
:100B00008D919D910D90BC91A02D248135814681C0
:100B10005781281739074A075B0718F4112341F05A
:100B20000AC082179307A407B50740F4112319F0F0
:100B300061E070E005C06FEF7FEF02C060E070E041
:100B4000CB011F910895DF93CF93CDB7DEB72797E1
:100B50000FB6F894DEBF0FBECDBF89836A834B8387
:100B60008B81882309F074C08981282F30E03F836E
:100B70002E838E819F818130910559F12E813F8195
:100B8000223031052CF48E819F81009769F0D2C00C
:100B90002E813F812230310589F18E819F81833002
:100BA000910509F440C0C6C0AAE3B0E0EAE3F0E072
:100BB0008081482F8A81282F30E081E090E0022E4A
:100BC00002C0880F991F0A94E2F7809584238C93C2
:100BD000B1C0A7E3B0E0E7E3F0E08081482F8A816D
:100BE000282F30E081E090E0022E02C0880F991F8C
:100BF0000A94E2F7809584238C939CC0A4E3B0E030
:100C0000E4E3F0E08081482F8A81282F30E081E002
:100C100090E0022E02C0880F991F0A94E2F7809597
:100C200084238C9387C0A1E3B0E0E1E3F0E080810E
:100C3000482F8A81282F30E081E090E0022E02C008
:100C4000880F991F0A94E2F7809584238C9372C0D1
:100C50008B81813009F06EC08981282F30E03D837F
:100C60002C838C819D818130910549F12C813D81BE
:100C7000223031052CF48C819D81009761F05AC09F
:100C80002C813D812230310571F18C819D81833031
:100C90009105E9F14FC0AAE3B0E0EAE3F0E080811A
:100CA000482F8A81282F30E081E090E0022E02C098
:100CB000880F991F0A94E2F7842B8C933BC0A7E31B
:100CC000B0E0E7E3F0E08081482F8A81282F30E010
:100CD00081E090E0022E02C0880F991F0A94E2F78B
:100CE000842B8C9327C0A4E3B0E0E4E3F0E08081A0
:100CF000482F8A81282F30E081E090E0022E02C048
:100D0000880F991F0A94E2F7842B8C9313C0A1E3F8
:100D1000B0E0E1E3F0E08081482F8A81282F30E0C5
:100D200081E090E0022E02C0880F991F0A94E2F73A
:100D3000842B8C9327960FB6F894DEBF0FBECDBFE1
:100D4000CF91DF910895DF93CF93CDB7DEB727978B
:100D50000FB6F894DEBF0FBECDBF89836A834B8385
:100D60008B81813009F06FC08981282F30E03F836B
:100D70002E838E819F818130910549F12E813F81A3
:100D8000223031052CF48E819F81009761F0D2C012
:100D90002E813F812230310571F18E819F81833018
:100DA0009105E9F1C7C0ABE3B0E0EBE3F0E080818F
:100DB000482F8A81282F30E081E090E0022E02C087
:100DC000880F991F0A94E2F7842B8C93B3C0A8E391
:100DD000B0E0E8E3F0E08081482F8A81282F30E0FE
:100DE00081E090E0022E02C0880F991F0A94E2F77A
:100DF000842B8C939FC0A5E3B0E0E5E3F0E0808115
:100E0000482F8A81282F30E081E090E0022E02C036
:100E1000880F991F0A94E2F7842B8C938BC0A2E36E
:100E2000B0E0E2E3F0E08081482F8A81282F30E0B3
:100E300081E090E0022E02C0880F991F0A94E2F729
:100E4000842B8C9377C08B81882309F073C08981B0
:100E5000282F30E03D832C838C819D81813091054A
:100E600059F12C813D81223031052CF48C819D81FA
:100E7000009769F05FC02C813D812230310589F1F6
:100E80008C819D818330910509F440C053C0ABE350
:100E9000B0E0EBE3F0E08081482F8A81282F30E03A
:100EA00081E090E0022E02C0880F991F0A94E2F7B9
:100EB000809584238C933EC0A8E3B0E0E8E3F0E0A3
:100EC0008081482F8A81282F30E081E090E0022E37
:100ED00002C0880F991F0A94E2F7809584238C93AF
:100EE00029C0A5E3B0E0E5E3F0E08081482F8A81E6
:100EF000282F30E081E090E0022E02C0880F991F79
:100F00000A94E2F7809584238C9314C0A2E3B0E0A6
:100F1000E2E3F0E08081482F8A81282F30E081E0F1
:100F200090E0022E02C0880F991F0A94E2F7809584
:100F300084238C9327960FB6F894DEBF0FBECDBFE7
:100F4000CF91DF910895DF93CF9300D000D000D0F0
:100F5000CDB7DEB789836A835C834B838981282F71
:100F600030E03E832D838D819E818130910549F152
:100F70002D813E81223031052CF48D819E81009798
:100F800061F05AC02D813E812230310571F18D8191
:100F90009E8183309105E9F14FC0E9E3F0E0808163
:100FA000482F8A81282F30E081E090E0022E02C095
:100FB000880F991F0A94E2F78423EB81FC818083D8
:100FC0003BC0E6E3F0E08081482F8A81282F30E0A3
:100FD00081E090E0022E02C0880F991F0A94E2F788
:100FE0008423EB81FC81808327C0E3E3F0E08081F0
:100FF000482F8A81282F30E081E090E0022E02C045
:10100000880F991F0A94E2F78423EB81FC81808387
:1010100013C0E0E3F0E08081482F8A81282F30E080
:1010200081E090E0022E02C0880F991F0A94E2F737
:101030008423EB81FC81808326960FB6F894DEBF73
:101040000FBECDBFCF91DF910895DF93CF9300D036
:1010500000D000D0CDB7DEB789836A838A81882328
:1010600079F58981282F30E03E832D838D819E8103
:1010700081309105C9F02D813E81223031052CF45B
:101080008D819E81009761F050C02D813E8122307C
:10109000310571F08D819E818330910569F045C0E5
:1010A000EAE3F0E0108241C0E7E3F0E010823DC0E7
:1010B000E4E3F0E0108239C0E1E3F0E0108235C0F3
:1010C0008A81813091F58981282F30E03C832B8300
:1010D0008B819C8181309105D1F02B813C81223024
:1010E00031052CF48B819C81009761F01EC02B810F
:1010F0003C812230310581F08B819C8183309105C8
:1011000081F013C0EAE3F0E08FEF80830EC0E7E3E5
:10111000F0E08FEF808309C0E4E3F0E08FEF80839D
:1011200004C0E1E3F0E08FEF808326960FB6F894D9
:10113000DEBF0FBECDBFCF91DF910895DF93CF9378
:1011400000D000D0CDB7DEB789836A838981282F8C
:1011500030E03C832B838B819C8181309105D1F0E1
:101160002B813C81223031052CF48B819C810097AE
:1011700061F01EC02B813C812230310581F08B81D2
:101180009C818330910581F013C0EBE3F0E08A810C
:1011900080830EC0E8E3F0E08A81808309C0E5E344
:1011A000F0E08A81808304C0E2E3F0E08A818083FA
:1011B0000F900F900F900F90CF91DF910895DF93D4
:1011C000CF9300D000D00F92CDB7DEB789837B8359
:1011D0006A838981282F30E03D832C838C819D8117
:1011E00081309105E1F02C813D81223031052CF4D4
:1011F0008C819D81009761F026C02C813D81223039
:101200003105A1F08C819D8183309105B1F01BC027
:10121000E9E3F0E08081EA81FB81808314C0E6E3AA
:10122000F0E08081EA81FB8180830DC0E3E3F0E0A0
:101230008081EA81FB81808306C0E0E3F0E0808169
:10124000EA81FB8180830F900F900F900F900F9099
:10125000CF91DF910895DF93CF93CDB7DEB7A5E5AA
:10126000B0E0E5E5F0E0808181608C93A5E5B0E039
:10127000E5E5F0E080818D7F8C93ABE5B0E0EBE5B8
:10128000F0E0808180648C93CF91DF910895DF93AB
:10129000CF93CDB7DEB7A5E5B0E0E5E5F0E080811E
:1012A00084608C93A5E5B0E0E5E5F0E08081877F80
:1012B0008C93ABE5B0E0EBE5F0E0808180688C9347
:1012C000CF91DF910895DF93CF93CDB7DEB7A4E53B
:1012D000B0E0E4E5F0E0808180648C93ABE5B0E0C1
:1012E000EBE5F0E0808180628C93CF91DF910895EF
:1012F000DF93CF9300D00F92CDB7DEB79B838A8365
:1013000081E089838A819B81009739F08A819B8162
:101310009093E1008093E00002C083E0898389819B
:101320000F900F900F90CF91DF910895DF93CF939F
:1013300000D00F92CDB7DEB79B838A8381E089838B
:101340008A819B81009739F08A819B819093E30089
:101350008093E20002C083E0898389810F900F901F
:101360000F90CF91DF910895DF93CF9300D00F922C
:10137000CDB7DEB79B838A8381E089838A819B8195
:10138000009739F08A819B819093E5008093E40077
:1013900002C083E0898389810F900F900F90CF91D5
:1013A000DF9108951F920F920FB60F9211242F9381
:1013B0003F934F935F936F937F938F939F93AF93DD
:1013C000BF93EF93FF93DF93CF93CDB7DEB7E09159
:1013D000E000F091E1000995CF91DF91FF91EF914D
:1013E000BF91AF919F918F917F916F915F914F913D
:1013F0003F912F910F900FBE0F901F9018951F9245
:101400000F920FB60F9211242F933F934F935F9338
:101410006F937F938F939F93AF93BF93EF93FF93BC
:10142000DF93CF93CDB7DEB7E091E200F091E30018
:101430000995CF91DF91FF91EF91BF91AF919F916E
:101440008F917F916F915F914F913F912F910F906D
:101450000FBE0F901F9018951F920F920FB60F920C
:1014600011242F933F934F935F936F937F938F93A9
:101470009F93AF93BF93EF93FF93DF93CF93CDB73A
:10148000DEB7E091E400F091E5000995CF91DF919E
:10149000FF91EF91BF91AF919F918F917F916F914C
:1014A0005F914F913F912F910F900FBE0F901F9022
:1014B0001895DF93CF93CDB7DEB7AFE5B0E0EFE59A
:1014C000F0E0808180688C93CF91DF910895DF9365
:1014D000CF93CDB7DEB7AFE5B0E0EFE5F0E08081C8
:1014E0008F778C93CF91DF910895DF93CF93CDB712
:1014F000DEB72F970FB6F894DEBF0FBECDBF8F8734
:1015000082E060E040E00E94A30682E061E040E00B
:101510000E94A30680E06F850E949E0882E062E040
:1015200041E00E94A30680E090E0A0E0B0E48B8759
:101530009C87AD87BE876B857C858D859E8520E0E9
:1015400030E04AE753E40E941F02DC01CB018F83A5
:101550009887A987BA876F81788589859A8520E0E1
:1015600030E040E85FE30E94790388232CF481E0B7
:1015700090E09E838D833FC06F81788589859A85B1
:1015800020E03FEF4FE757E40E94190318164CF58F
:101590006B857C858D859E8520E030E040E251E4BE
:1015A0000E941F02DC01CB01BC01CD010E94490059
:1015B000DC01CB019E838D830FC089E190E09C8389
:1015C0008B838B819C810197F1F79C838B838D8129
:1015D0009E8101979E838D838D819E81009769F7FF
:1015E00014C06F81788589859A850E944900DC0145
:1015F000CB019E838D838D819E819A83898389818E
:101600009A810197F1F79A83898382E062E040E052
:101610000E94A3062F960FB6F894DEBF0FBECDBF73
:10162000CF91DF910895DF93CF93CDB7DEB72F979A
:101630000FB6F894DEBF0FBECDBF8F8782E060E0AB
:1016400041E00E94A30682E061E040E00E94A30620
:1016500080E06F850E949E0882E062E041E00E9487
:10166000A30680E090E0A0E0B0E48B879C87AD8784
:10167000BE876B857C858D859E8520E030E04AE7BE
:1016800053E40E941F02DC01CB018F839887A98756
:10169000BA876F81788589859A8520E030E040E8B7
:1016A0005FE30E94790388232CF481E090E09E831D
:1016B0008D833FC06F81788589859A8520E03FEFD3
:1016C0004FE757E40E94190318164CF56B857C858B
:1016D0008D859E8520E030E040E251E40E941F02AB
:1016E000DC01CB01BC01CD010E944900DC01CB0132
:1016F0009E838D830FC089E190E09C838B838B81D7
:101700009C810197F1F79C838B838D819E8101974A
:101710009E838D838D819E81009769F714C06F81B0
:10172000788589859A850E944900DC01CB019E83DA
:101730008D838D819E819A83898389819A81019786
:10174000F1F79A83898382E062E040E00E94A30679
:101750002F960FB6F894DEBF0FBECDBFCF91DF91AD
:101760000895DF93CF93CDB7DEB72E970FB6F894D9
:10177000DEBF0FBECDBF80E090E0A0E2B2E48B8779
:101780009C87AD87BE876B857C858D859E8520E097
:1017900030E04AE753E40E941F02DC01CB018F8353
:1017A0009887A987BA876F81788589859A8520E08F
:1017B00030E040E85FE30E94790388232CF481E065
:1017C00090E09E838D833FC06F81788589859A855F
:1017D00020E03FEF4FE757E40E94190318164CF53D
:1017E0006B857C858D859E8520E030E040E251E46C
:1017F0000E941F02DC01CB01BC01CD010E94490007
:10180000DC01CB019E838D830FC089E190E09C8336
:101810008B838B819C810197F1F79C838B838D81D6
:101820009E8101979E838D838D819E81009769F7AC
:1018300014C06F81788589859A850E944900DC01F2
:10184000CB019E838D838D819E819A83898389813B
:101850009A810197F1F79A83898388E30E94750A38
:101860008CE00E94750A81E00E94750A2E960FB6E0
:10187000F894DEBF0FBECDBFCF91DF910895DF9307
:10188000CF9300D000D0CDB7DEB789836A8389813A
:10189000282F30E03C832B838B819C81009731F093
:1018A0002B813C812130310561F016C08A81803165
:1018B00098F48A8180580E94750A8A818093BC00BE
:1018C0000BC08A81803140F48A8180540E94750A5D
:1018D0008A818F5E8093BC000F900F900F900F90C5
:1018E000CF91DF910895DF93CF9300D000D0CDB793
:1018F000DEB79A8389836B834C838B816C810E94D2
:101900003F0C89819A810E948C0C0F900F900F9050
:101910000F90CF91DF910895DF93CF9300D00F9276
:10192000CDB7DEB79B838A83198215C08981803148
:1019300021F481E060E00E943F0C8981282F30E093
:101940008A819B81FC01E20FF31F80810E94130BAF
:1019500089818F5F89838981282F30E08A819B81EB
:10196000FC01E20FF31F8081882301F70F900F9095
:101970000F90CF91DF910895DF93CF93CDB7DEB76E
:1019800064970FB6F894DEBF0FBECDBF698B7A8B1C
:101990008B8B9C8B89899A899E012F5F3F4FB90160
:1019A0004AE050E00E94CF1DCE0101960E948C0CAF
:1019B00064960FB6F894DEBF0FBECDBFCF91DF9116
:1019C0000895DF93CF93CDB7DEB781E00E94750A0B
:1019D00081E08093BC00CF91DF910895DF93CF9396
:1019E000CDB7DEB729970FB6F894DEBF0FBECDBFD7
:1019F00089836A834B83ADE2B0E0EDE2F0E0808161
:101A000080618C938B81282F30E0398728878885E7
:101A10009985009731F0288539852130310549F0C5
:101A20000FC0ADE2B0E0EDE2F0E08081877F8C9303
:101A300007C0ADE2B0E0EDE2F0E0808188608C9319
:101A40008A81282F30E03F832E838E819F810097EB
:101A500031F02E813F812130310549F00FC0ADE2D8
:101A6000B0E0EDE2F0E080818B7F8C9307C0ADE2C7
:101A7000B0E0EDE2F0E0808184608C938981282FD2
:101A800030E03D832C838C819D818330910509F466
:101A900070C02C813D812430310584F48C819D817E
:101AA00081309105D1F12C813D81223031050CF03E
:101AB0004AC08C819D810097D1F0C8C02C813D81A6
:101AC0002530310509F481C08C819D8185309105D7
:101AD0000CF465C02C813D812630310509F48BC0A2
:101AE0008C819D818730910509F49BC0AFC0ADE228
:101AF000B0E0EDE2F0E080818E7F8C93ADE2B0E06B
:101B0000EDE2F0E080818D7F8C93AEE2B0E0EEE21A
:101B1000F0E080818E7F8C9399C0ADE2B0E0EDE281
:101B2000F0E0808181608C93ADE2B0E0EDE2F0E026
:101B300080818D7F8C93AEE2B0E0EEE2F0E08081B8
:101B40008E7F8C9383C0ADE2B0E0EDE2F0E0808167
:101B50008E7F8C93ADE2B0E0EDE2F0E080818260B8
:101B60008C93AEE2B0E0EEE2F0E080818E7F8C9369
:101B70006DC0ADE2B0E0EDE2F0E0808181608C9379
:101B8000ADE2B0E0EDE2F0E0808182608C93AEE205
:101B9000B0E0EEE2F0E080818E7F8C9357C0ADE242
:101BA000B0E0EDE2F0E080818E7F8C93ADE2B0E0BA
:101BB000EDE2F0E080818D7F8C93AEE2B0E0EEE26A
:101BC000F0E0808181608C9341C0ADE2B0E0EDE255
:101BD000F0E0808181608C93ADE2B0E0EDE2F0E076
:101BE00080818D7F8C93AEE2B0E0EEE2F0E0808108
:101BF00081608C932BC0ADE2B0E0EDE2F0E080813B
:101C00008E7F8C93ADE2B0E0EDE2F0E08081826007
:101C10008C93AEE2B0E0EEE2F0E0808181608C93E4
:101C200015C0ADE2B0E0EDE2F0E0808181608C9320
:101C3000ADE2B0E0EDE2F0E0808182608C93AEE254
:101C4000B0E0EEE2F0E0808181608C93ADE2B0E044
:101C5000EDE2F0E0808180648C9329960FB6F894D1
:101C6000DEBF0FBECDBFCF91DF910895DF93CF933D
:101C700000D000D000D0CDB7DEB789836A83ADE253
:101C8000B0E0EDE2F0E080818F7E8C938A81282F96
:101C900030E03E832D838D819E81009731F02D8130
:101CA0003E812130310549F00FC0ADE2B0E0EDE2F8
:101CB000F0E08081877F8C9307C0ADE2B0E0EDE279
:101CC000F0E0808188608C938981282F30E03C830C
:101CD0002B838B819C81009731F02B813C812130BB
:101CE000310549F00FC0ADE2B0E0EDE2F0E08081F7
:101CF0008B7F8C9307C0ADE2B0E0EDE2F0E0808135
:101D000084608C93ADE2B0E0EDE2F0E0808180642D
:101D10008C9326960FB6F894DEBF0FBECDBFCF9141
:101D2000DF910895DF93CF930F92CDB7DEB789830C
:101D3000EFE2F0E089818083EEE2F0E080818823A9
:101D4000DCF7EFE2F0E080810F90CF91DF91089512
:101D5000DF93CF93CDB7DEB7AFE4B0E0EFE4F0E0D0
:101D6000808180688C93AFE4B0E0EFE4F0E08081A4
:101D70008F7B8C93AFE4B0E0EFE4F0E080818E7F66
:101D80008C93AFE4B0E0EFE4F0E0808182608C936C
:101D9000AFE4B0E0EFE4F0E0808188608C93AFE4E2
:101DA000B0E0EFE4F0E0808180618C93AEE4B0E0DD
:101DB000EEE4F0E08081887F8C93AEE4B0E0EEE466
:101DC000F0E08081826F8C93CF91DF910895DF9353
:101DD000CF9300D0CDB7DEB79A838983E6E4F0E0F5
:101DE00089819A81918380830F900F90CF91DF91A9
:101DF0000895DF93CF9300D0CDB7DEB79A83898360
:101E0000EAE4F0E089819A81918380830F900F90BA
:101E1000CF91DF910895DF93CF9300D000D0CDB75D
:101E2000DEB789836A838981282F30E03C832B8346
:101E30008B819C818130910521F12B813C81223065
:101E400031052CF48B819C81009761F046C02B8179
:101E50003C812230310521F18B819C8183309105B9
:101E600071F13BC0A3E5B0E0E3E5F0E080818F7B5A
:101E70008C93A3E5B0E0E3E5F0E08081877F8C936D
:101E80002CC0A3E5B0E0E3E5F0E0808180648C93B2
:101E9000A3E5B0E0E3E5F0E08081877F8C931DC08F
:101EA000A3E5B0E0E3E5F0E080818F7B8C93A3E5D0
:101EB000B0E0E3E5F0E0808188608C930EC0A3E59C
:101EC000B0E0E3E5F0E0808180648C93A3E5B0E0CE
:101ED000E3E5F0E0808188608C93A3E5B0E0E3E582
:101EE000F0E08081886F8C93A3E5B0E0E3E5F0E05B
:101EF00090818A81892B8C930F900F900F900F9077
:101F0000CF91DF910895DF93CF9300D00F92CDB79B
:101F1000DEB789838981282F30E03B832A838A8139
:101F20009B818130910521F12A813B81223031054D
:101F30002CF48A819B81009761F046C02A813B8105
:101F40002230310521F18A819B818330910571F125
:101F50003BC0A3E5B0E0E3E5F0E080818F7E8C93A9
:101F6000A3E5B0E0E3E5F0E080818F7D8C932CC0A9
:101F7000A3E5B0E0E3E5F0E0808180618C93A3E528
:101F8000B0E0E3E5F0E080818F7D8C931DC0A3E598
:101F9000B0E0E3E5F0E080818F7E8C93A3E5B0E0D4
:101FA000E3E5F0E0808180628C930EC0A3E5B0E0B1
:101FB000E3E5F0E0808180618C93A3E5B0E0E3E5A8
:101FC000F0E0808180628C930F900F900F90CF9102
:101FD000DF910895DF93CF930F92CDB7DEB789835A
:101FE0008981882341F4A9E5B0E0E9E5F0E080814A
:101FF00081608C930AC08981813039F4A9E5B0E011
:10200000E9E5F0E0808182608C930F90CF91DF91C1
:102010000895DF93CF930F92CDB7DEB7898389817F
:10202000882341F4A9E5B0E0E9E5F0E080818E7F06
:102030008C930AC08981813039F4A9E5B0E0E9E5E3
:10204000F0E080818D7F8C930F90CF91DF91089588
:10205000DF93CF930F92CDB7DEB78983ECE5F0E045
:10206000898180830F90CF91DF910895DF93CF9383
:1020700000D0CDB7DEB79A83898389819A81909306
:10208000E7008093E6000F900F90CF91DF910895C5
:102090001F920F920FB60F9211242F933F934F93DD
:1020A0005F936F937F938F939F93AF93BF93EF93C0
:1020B000FF93DF93CF93CDB7DEB7E091E600F091C9
:1020C000E7000995CF91DF91FF91EF91BF91AF911B
:1020D0009F918F917F916F915F914F913F912F9140
:1020E0000F900FBE0F901F901895DF93CF930F9214
:1020F000CDB7DEB78983EBE2F0E08081882F90E0F6
:10210000807290700097B9F3ECE2F0E089818083EF
:102110000F90CF91DF910895DF93CF93CDB7DEB7C6
:10212000EBE2F0E080818823DCF7ECE2F0E08081F4
:10213000CF91DF910895DF93CF9300D00F92CDB769
:10214000DEB79B838A8319820EC08981282F30E0F5
:102150008A819B81FC01E20FF31F80810E94751030
:1021600089818F5F89838981282F30E08A819B81D3
:10217000FC01E20FF31F8081882339F70F900F9045
:102180000F90CF91DF9108950F931F93DF93CF931B
:1021900000D000D00F92CDB7DEB79C838B836D83C8
:1021A0001A8281E089838B819C81009719F483E0F6
:1021B000898315C01A820FC08A81282F30E08B8155
:1021C0009C818C01020F131F0E948C10F8018083E8
:1021D0008A818F5F8A839A818D81981768F38981BC
:1021E0000F900F900F900F900F90CF91DF911F9154
:1021F0000F910895DF93CF93CDB7DEB72A970FB62F
:10220000F894DEBF0FBECDBF8A836B834C831982E7
:10221000AAE2B0E0EAE2F0E0808188608C93AAE272
:10222000B0E0EAE2F0E0808180618C93898180688F
:1022300089838A81282F30E03A87298789859A8582
:10224000009731F029853A852130310529F007C002
:102250008981877F898303C08981886089838B8195
:10226000282F30E038872F838F8198858130910522
:10227000E1F02F813885223031052CF48F8198854B
:10228000009761F026C02F81388522303105A1F0FA
:102290008F81988583309105B1F01BC089818F7E35
:1022A000898389818F7D898314C089818061898335
:1022B00089818F7D89830DC089818F7E8983898102
:1022C0008062898306C08981806189838981806277
:1022D00089838C81282F30E03E832D838D819E81E0
:1022E00082309105B1F12D813E812330310554F4C6
:1022F0008D819E81009789F02D813E8121303105AD
:10230000D1F050C08D819E818330910581F12D8166
:102310003E8127303105C9F145C089818D7F898390
:1023200089818B7F8983AAE2B0E0EAE2F0E08081D4
:102330008B7F8C9337C089818260898389818B7F71
:102340008983AAE2B0E0EAE2F0E080818B7F8C939F
:1023500029C089818D7F8983898184608983AAE2EC
:10236000B0E0EAE2F0E080818B7F8C931BC0898132
:1023700082608983898184608983AAE2B0E0EAE28D
:10238000F0E080818B7F8C930DC08981826089838E
:10239000898184608983AAE2B0E0EAE2F0E080818A
:1023A00084608C9389818F7B8983E0E4F0E089816C
:1023B0008083E9E2F0E083E380832A960FB6F89405
:1023C000DEBF0FBECDBFCF91DF9108950F931F9356
:1023D000DF93CF93CDB7DEB7CA59D0400FB6F8948C
:1023E000DEBF0FBECDBF0E94391A0E94B21AFE0195
:1023F000E956FF4F80E090E0AAE7B3E48083918341
:10240000A283B3838E010D561F4FFE01E956FF4F85
:10241000608171818281938120E030E04AE753E45A
:102420000E941F02DC01CB01F80180839183A2830B
:10243000B383FE01ED56FF4F6081718182819381EC
:1024400020E030E040E85FE30E947903882344F411
:10245000FE01EF56FF4F81E090E09183808364C0DE
:10246000FE01ED56FF4F608171818281938120E0F2
:102470003FEF4FE757E40E94190318160CF043C0D2
:10248000FE01E956FF4F608171818281938120E0D6
:1024900030E040E251E40E941F02DC01CB018E01DA
:1024A0000F561F4FBC01CD010E944900DC01CB013A
:1024B000F801918380831FC0FE01E157FF4F89E13E
:1024C00090E091838083FE01E157FF4F80819181ED
:1024D0000197F1F7FE01E157FF4F91838083DE0101
:1024E000AF56BF4FFE01EF56FF4F8081918101979C
:1024F00011969C938E93FE01EF56FF4F8081918140
:102500000097D1F627C08E010F561F4FFE01ED56E2
:10251000FF4F60817181828193810E944900DC01BB
:10252000CB01F80191838083DE01A357BF4FFE01E9
:10253000EF56FF4F808191818D939C93FE01E3576D
:10254000FF4F808191810197F1F7FE01E357FF4F23
:102550009183808380E690E00E948C0CFE01E75717
:10256000FF4F80E090E0AAE7B3E480839183A283E9
:10257000B3838E010B571F4FFE01E757FF4F60815A
:1025800071818281938120E030E04AE753E40E9428
:102590001F02DC01CB01F80180839183A283B38306
:1025A000FE01EB57FF4F608171818281938120E0B2
:1025B00030E040E85FE30E947903882344F4FE01A1
:1025C000ED57FF4F81E090E09183808364C0FE016E
:1025D000EB57FF4F608171818281938120E03FEF53
:1025E0004FE757E40E94190318160CF043C0FE0190
:1025F000E757FF4F608171818281938120E030E055
:1026000040E251E40E941F02DC01CB018E010D5714
:102610001F4FBC01CD010E944900DC01CB01F80134
:10262000918380831FC0FE01EF57FF4F89E190E047
:1026300091838083FE01EF57FF4F80819181019745
:10264000F1F7FE01EF57FF4F91838083DE01AD5715
:10265000BF4FFE01ED57FF4F808191810197119689
:102660009C938E93FE01ED57FF4F808191810097DF
:10267000D1F627C08E010D571F4FFE01EB57FF4FBC
:1026800060817181828193810E944900DC01CB01CC
:10269000F80191838083DE01A158BF4FFE01ED5701
:1026A000FF4F808191818D939C93FE01E158FF4FF4
:1026B000808191810197F1F7FE01E158FF4F9183ED
:1026C000808381E060E00E943F0C89E690E00E94F8
:1026D0008C0C0E94CA1A8091E900863008F0BAC6B4
:1026E000E0E3F0E08081882F90E0887090700097A0
:1026F00009F022C58091E900863008F019C592C41E
:1027000083E066E041E00E94A3061092E80010C05A
:102710008091E800082F10E08FEF0E94920EF801E0
:10272000E451FF4F80838091E8008F5F8093E80041
:102730008091E800863060F38091E800863009F0EF
:1027400071C41092EA001CC08091EA00882F90E0CA
:10275000FC01E451FF4F20818091EA00882F90E036
:10276000FC01E354FF4F8081281729F48091EB008E
:102770008F5F8093EB008091EA008F5F8093EA0087
:102780008091EA00882F90E0FC01E354FF4F8081A4
:102790008823D1F68091EB00863019F40E94FE1A4E
:1027A00041C41092EB001092EA001CC08091EA0034
:1027B000882F90E0FC01E451FF4F20818091EA00D6
:1027C000882F90E0FC01EC53FF4F8081281729F4FB
:1027D0008091EB008F5F8093EB008091EA008F5F28
:1027E0008093EA008091EA00882F90E0FC01EC538E
:1027F000FF4F80818823D1F68091EB00863019F459
:102800000E94FE1A0FC41092EB001092EA001CC046
:102810008091EA00882F90E0FC01E451FF4F208175
:102820008091EA00882F90E0FC01E553FF4F808102
:10283000281729F48091EB008F5F8093EB00809143
:10284000EA008F5F8093EA008091EA00882F90E091
:10285000FC01E553FF4F80818823D1F68091EB0086
:10286000863019F40E94FE1ADDC31092EB0010921C
:10287000EA001CC08091EA00882F90E0FC01E4513E
:10288000FF4F20818091EA00882F90E0FC01EE52FA
:10289000FF4F8081281729F48091EB008F5F809390
:1028A000EB008091EA008F5F8093EA008091EA005C
:1028B000882F90E0FC01EE52FF4F80818823D1F6F3
:1028C0008091EB00863019F40E94FE1AABC310927F
:1028D000EB001092EA001CC08091EA00882F90E083
:1028E000FC01E451FF4F20818091EA00882F90E0A5
:1028F000FC01E752FF4F8081281729F48091EB00FB
:102900008F5F8093EB008091EA008F5F8093EA00F5
:102910008091EA00882F90E0FC01E752FF4F808110
:102920008823D1F68091EB00863019F40E94FE1ABC
:1029300079C386E790E00E949B108DE00E9475109D
:10294000FE01E558FF4F80E090E0AAE7B3E4808302
:102950009183A283B3838E0109581F4FFE01E5586E
:10296000FF4F608171818281938120E030E04AE7EE
:1029700053E40E941F02DC01CB01F80180839183A4
:10298000A283B383FE01E958FF4F60817181828188
:10299000938120E030E040E85FE30E9479038823E0
:1029A00044F4FE01EB58FF4F81E090E09183808377
:1029B00064C0FE01E958FF4F60817181828193817B
:1029C00020E03FEF4FE757E40E94190318160CF080
:1029D00043C0FE01E558FF4F608171818281938180
:1029E00020E030E040E251E40E941F02DC01CB0114
:1029F0008E010B581F4FBC01CD010E944900DC0124
:102A0000CB01F801918380831FC0FE01ED58FF4F79
:102A100089E190E091838083FE01ED58FF4F808132
:102A200091810197F1F7FE01ED58FF4F918380836B
:102A3000DE01AB58BF4FFE01EB58FF4F8081918103
:102A4000019711969C938E93FE01EB58FF4F808166
:102A500091810097D1F627C08E010B581F4FFE01C0
:102A6000E958FF4F60817181828193810E94490002
:102A7000DC01CB01F80191838083DE01AF58BF4FA9
:102A8000FE01EB58FF4F808191818D939C93FE0155
:102A9000EF58FF4F808191810197F1F7FE01EF58C8
:102AA000FF4F9183808380E067E00E943F0C89E8BC
:102AB00090E00E948C0CFE01E359FF4F80E090E40F
:102AC000ACE9B5E480839183A283B3838E01075977
:102AD0001F4FFE01E359FF4F608171818281938115
:102AE00020E030E04AE753E40E941F02DC01CB0102
:102AF000F80180839183A283B383FE01E759FF4FDE
:102B0000608171818281938120E030E040E85FE361
:102B10000E947903882344F4FE01E959FF4F81E0C4
:102B200090E09183808364C0FE01E759FF4F60818C
:102B300071818281938120E03FEF4FE757E40E944B
:102B4000190318160CF043C0FE01E359FF4F6081D2
:102B500071818281938120E030E040E251E40E9463
:102B60001F02DC01CB018E0109591F4FBC01CD01B1
:102B70000E944900DC01CB01F801918380831FC0D2
:102B8000FE01EB59FF4F89E190E091838083FE01C4
:102B9000EB59FF4F808191810197F1F7FE01EB59CD
:102BA000FF4F91838083DE01A959BF4FFE01E95990
:102BB000FF4F80819181019711969C938E93FE0126
:102BC000E959FF4F808191810097D1F627C08E018E
:102BD00009591F4FFE01E759FF4F608171818281C2
:102BE00093810E944900DC01CB01F801918380832D
:102BF000DE01AD59BF4FFE01E959FF4F8081918140
:102C00008D939C93FE01ED59FF4F80819181019737
:102C1000F1F7FE01ED59FF4F9183808381E00E941F
:102C2000750AFE01E15AFF4F80E090E0AAE7B3E4A5
:102C300080839183A283B3838E01055A1F4FFE01C7
:102C4000E15AFF4F608171818281938120E030E001
:102C50004AE753E40E941F02DC01CB01F8018083A4
:102C60009183A283B383FE01E55AFF4F6081718196
:102C70008281938120E030E040E85FE30E947903A5
:102C8000882344F4FE01E75AFF4F81E090E09183EE
:102C9000808364C0FE01E55AFF4F608171818281AB
:102CA000938120E03FEF4FE757E40E941903181685
:102CB0000CF043C0FE01E15AFF4F608171818281B7
:102CC000938120E030E040E251E40E941F02DC01E9
:102CD000CB018E01075A1F4FBC01CD010E94490054
:102CE000DC01CB01F801918380831FC0FE01E95A0A
:102CF000FF4F89E190E091838083FE01E95AFF4F05
:102D0000808191810197F1F7FE01E95AFF4F91838C
:102D10008083DE01A75ABF4FFE01E75AFF4F808133
:102D20009181019711969C938E93FE01E75AFF4F74
:102D3000808191810097D1F627C08E01075A1F4FDD
:102D4000FE01E55AFF4F60817181828193810E946B
:102D50004900DC01CB01F80191838083DE01AB5A8D
:102D6000BF4FFE01E75AFF4F808191818D939C9365
:102D7000FE01EB5AFF4F808191810197F1F7FE012F
:102D8000EB5AFF4F9183808380E690E00E948C0C89
:102D9000FE01EF5AFF4F80E090E0AAE7B3E48083A2
:102DA0009183A283B3838E01035B1F4FFE01EF5A11
:102DB000FF4F608171818281938120E030E04AE79A
:102DC00053E40E941F02DC01CB01F8018083918350
:102DD000A283B383FE01E35BFF4F60817181828137
:102DE000938120E030E040E85FE30E94790388238C
:102DF00044F4FE01E55BFF4F81E090E09183808326
:102E000064C0FE01E35BFF4F608171818281938129
:102E100020E03FEF4FE757E40E94190318160CF02B
:102E200043C0FE01EF5AFF4F60817181828193811F
:102E300020E030E040E251E40E941F02DC01CB01BF
:102E40008E01055B1F4FBC01CD010E944900DC01D2
:102E5000CB01F801918380831FC0FE01E75BFF4F28
:102E600089E190E091838083FE01E75BFF4F8081E1
:102E700091810197F1F7FE01E75BFF4F918380831A
:102E8000DE01A55BBF4FFE01E55BFF4F80819181B5
:102E9000019711969C938E93FE01E55BFF4F808115
:102EA00091810097D1F627C08E01055B1F4FFE016F
:102EB000E35BFF4F60817181828193810E944900B1
:102EC000DC01CB01F80191838083DE01A95BBF4F58
:102ED000FE01E55BFF4F808191818D939C93FE0104
:102EE000E95BFF4F808191810197F1F7FE01E95B7A
:102EF000FF4F9183808381E060E00E943F0C89E670
:102F000090E00E948C0C81E060E041E00E94A3060A
:102F1000FE01ED5BFF4F80E090E4ACE9B5E4808317
:102F20009183A283B3838E01015C1F4FFE01ED5B91
:102F3000FF4F608171818281938120E030E04AE718
:102F400053E40E941F02DC01CB01F80180839183CE
:102F5000A283B383FE01FF96608171818281938198
:102F600020E030E040E85FE30E94790388232CF4FE
:102F700081E090E09EAF8DAF46C0FE01FF9660817C
:102F800071818281938120E03FEF4FE757E40E94F7
:102F90001903181664F5FE01ED5BFF4F6081718126
:102FA0008281938120E030E040E251E40E941F02E0
:102FB000DC01CB01BC01CD010E944900DC01CB0149
:102FC0009EAF8DAF0FC089E190E09CAF8BAF8BAD12
:102FD0009CAD0197F1F79CAF8BAF8DAD9EAD019786
:102FE0009EAF8DAF8DAD9EAD009769F716C0FE0107
:102FF000FF9660817181828193810E944900DC018A
:10300000CB019EAF8DAF8DAD9EAD9AAF89AF89AD2F
:103010009AAD0197F1F79AAF89AF81E060E040E0A7
:103020000E94A306E0E3F0E08081882F90E08870A2
:103030009070009709F464CB83E066E040E00E9462
:10304000A30680E090E0AAE7B4E48DAB9EABAFAB03
:10305000B8AF6DA97EA98FA998AD20E030E04AE70E
:1030600053E40E941F02DC01CB0189AB9AABABABEE
:10307000BCAB69A97AA98BA99CA920E030E040E803
:103080005FE30E94790388232CF481E090E098AB01
:103090008FA73FC069A97AA98BA99CA920E03FEF1F
:1030A0004FE757E40E94190318164CF56DA97EA945
:1030B0008FA998AD20E030E040E251E40E941F0269
:1030C000DC01CB01BC01CD010E944900DC01CB0138
:1030D00098AB8FA70FC089E190E09EA78DA78DA523
:1030E0009EA50197F1F79EA78DA78FA598A9019797
:1030F00098AB8FA78FA598A9009769F714C069A905
:103100007AA98BA99CA90E944900DC01CB0198AB4C
:103110008FA78FA598A99CA78BA78BA59CA5019786
:10312000F1F79CA78BA78AEF90E00E94F90E92C15D
:1031300085E08093E9008EC1E0E3F0E08081882F94
:1031400090E080719070009709F084C18091E9004F
:10315000882309F47DC1F1C083E067E041E00E946B
:10316000A30680E090E00E94F90E80E090E4ACE9D4
:10317000B5E48FA398A7A9A7BAA76FA178A589A539
:103180009AA520E030E04AE753E40E941F02DC01E8
:10319000CB018BA39CA3ADA3BEA36BA17CA18DA1EE
:1031A0009EA120E030E040E85FE30E94790388239D
:1031B0002CF481E090E09AA389A33FC06BA17CA18D
:1031C0008DA19EA120E03FEF4FE757E40E94190335
:1031D00018164CF56FA178A589A59AA520E030E0D6
:1031E00040E251E40E941F02DC01CB01BC01CD0191
:1031F0000E944900DC01CB019AA389A30FC089E199
:1032000090E098A38F8F8F8D98A10197F1F798A3E5
:103210008F8F89A19AA101979AA389A389A19AA1C5
:10322000009769F714C06BA17CA18DA19EA10E949B
:103230004900DC01CB019AA389A389A19AA19E8FA1
:103240008D8F8D8D9E8D0197F1F79E8F8D8F8EEED8
:1032500092E00E94F90E80E090E4ACE1B6E4898F40
:103260009A8FAB8FBC8F698D7A8D8B8D9C8D20E072
:1032700030E04AE753E40E941F02DC01CB018D8B52
:103280009E8BAF8BB88F6D897E898F89988D20E05A
:1032900030E040E85FE30E94790388232CF481E06A
:1032A00090E09C8B8B8B3FC06D897E898F89988D38
:1032B00020E03FEF4FE757E40E94190318164CF542
:1032C000698D7A8D8B8D9C8D20E030E040E251E459
:1032D0000E941F02DC01CB01BC01CD010E9449000C
:1032E000DC01CB019C8B8B8B0FC089E190E09A8B2A
:1032F000898B89899A890197F1F79A8B898B8B89B8
:103300009C8901979C8B8B8B8B899C89009769F793
:1033100014C06D897E898F89988D0E944900DC01D7
:10332000CB019C8B8B8B8B899C89988B8F878F850E
:1033300098890197F1F7988B8F87E0E3F0E080811F
:10334000882F90E080719070009709F405CF83E09A
:1033500067E040E00E94A30680E090E0AAE7B4E4C2
:103360008B879C87AD87BE876B857C858D859E8589
:1033700020E030E04AE753E40E941F02DC01CB0169
:103380008F839887A987BA876F81788589859A8581
:1033900020E030E040E85FE30E94790388232CF4CA
:1033A00081E090E09E838D833FC06F817885898521
:1033B0009A8520E03FEF4FE757E40E941903181663
:1033C0004CF56B857C858D859E8520E030E040E264
:1033D00051E40E941F02DC01CB01BC01CD010E941F
:1033E0004900DC01CB019E838D830FC089E190E011
:1033F0009C838B838B819C810197F1F79C838B83CA
:103400008D819E8101979E838D838D819E81009702
:1034100069F714C06F81788589859A850E94490073
:10342000DC01CB019E838D838D819E819A8389836C
:1034300089819A810197F1F79A8389838AEF90E0D5
:103440000E94F90E8091E90081508093E90002C04A
:103450001092E90081E06CE00E943F0C8091E9004D
:10346000882F90E0A0E0B0E0BC01CD010E94BC0C30
:1034700030C9DF93CF93CDB7DEB781E064E040E0A1
:103480000E94A30581E065E040E00E94A30581E081
:1034900066E041E00E94A30581E067E040E00E9411
:1034A000A30583E061E041E00E94A30583E063E0BF
:1034B00040E00E94A30583E064E040E00E94A30591
:1034C00083E063E041E00E94A30683E064E041E022
:1034D0000E94A30683E066E041E00E94A30583E02A
:1034E00067E041E00E94A30583E066E040E00E94BF
:1034F000A30683E067E040E00E94A30680E061E06D
:103500000E94250882E060E041E00E94A30582E07D
:1035100061E041E00E94A30582E062E041E00E9498
:10352000A30583E065E041E00E94A30581E060E03F
:1035300041E00E94A30582E063E041E00E94A30510
:1035400082E064E041E00E94A30582E065E041E0A2
:103550000E94A30582E066E041E00E94A305CF91AE
:10356000DF910895DF93CF93CDB7DEB780E060E0C1
:103570000E94360E80E060E043E00E94FA100E9454
:10358000B10B0E94A80E8FE19EE40E94E70ECF913E
:10359000DF910895DF93CF93CDB7DEB78091E90037
:1035A0008823A9F482E063E040E00E94A30682E061
:1035B00064E040E00E94A30682E065E040E00E94F3
:1035C000A30682E066E040E00E94A30614C082E009
:1035D00063E041E00E94A30682E064E041E00E94D3
:1035E000A30682E065E041E00E94A30682E066E077
:1035F00041E00E94A306CF91DF9108950F931F939E
:10360000DF93CF93CDB7DEB7C654D0400FB6F89452
:10361000DEBF0FBECDBF83E990E00E949B108DE01E
:103620000E947510FE01ED5BFF4F80E090E0AAE77D
:10363000B3E480839183A283B3838E01015C1F4F27
:10364000FE01ED5BFF4F608171818281938120E0FB
:1036500030E04AE753E40E941F02DC01CB01F8018D
:1036600080839183A283B383FE01FF966081718181
:103670008281938120E030E040E85FE30E9479039B
:1036800088232CF481E090E09EAF8DAF46C0FE0110
:10369000FF96608171818281938120E03FEF4FE747
:1036A00057E40E941903181664F5FE01ED5BFF4F05
:1036B000608171818281938120E030E040E251E4B9
:1036C0000E941F02DC01CB01BC01CD010E94490018
:1036D000DC01CB019EAF8DAF0FC089E190E09CAFC4
:1036E0008BAF8BAD9CAD0197F1F79CAF8BAF8DADE0
:1036F0009EAD01979EAF8DAF8DAD9EAD009769F7E2
:1037000016C0FE01FF9660817181828193810E94C3
:103710004900DC01CB019EAF8DAF8DAD9EAD9AAF60
:1037200089AF89AD9AAD0197F1F79AAF89AF80E083
:1037300068E00E943F0C8CEE90E00E948C0C80E0D0
:1037400090E00E94F90E80E090E4ACE9B5E48DAB26
:103750009EABAFABB8AF6DA97EA98FA998AD20E0A5
:1037600030E04AE753E40E941F02DC01CB0189AB41
:103770009AABABABBCAB69A97AA98BA99CA920E099
:1037800030E040E85FE30E94790388232CF481E075
:1037900090E098AB8FA73FC069A97AA98BA99CA993
:1037A00020E03FEF4FE757E40E94190318164CF54D
:1037B0006DA97EA98FA998AD20E030E040E251E4E8
:1037C0000E941F02DC01CB01BC01CD010E94490017
:1037D000DC01CB0198AB8FA70FC089E190E09EA7D9
:1037E0008DA78DA59EA50197F1F79EA78DA78FA503
:1037F00098A9019798AB8FA78FA598A9009769F70B
:1038000014C069A97AA98BA99CA90E944900DC016E
:10381000CB0198AB8FA78FA598A99CA78BA78BA549
:103820009CA50197F1F79CA78BA78EEE92E00E94D2
:10383000F90E81E060E00E943F0C82EA90E00E9475
:103840008C0C80E090E4ACE9B5E48FA398A7A9A71D
:10385000BAA76FA178A589A59AA520E030E04AE72C
:1038600053E40E941F02DC01CB018BA39CA3ADA3F8
:10387000BEA36BA17CA18DA19EA120E030E040E819
:103880005FE30E94790388232CF481E090E09AA3FF
:1038900089A33FC06BA17CA18DA19EA120E03FEF39
:1038A0004FE757E40E94190318164CF56FA178A54D
:1038B00089A59AA520E030E040E251E40E941F0271
:1038C000DC01CB01BC01CD010E944900DC01CB0130
:1038D0009AA389A30FC089E190E098A38F8F8F8D61
:1038E00098A10197F1F798A38F8F89A19AA10197C9
:1038F0009AA389A389A19AA1009769F714C06BA123
:103900007CA18DA19EA10E944900DC01CB019AA35C
:1039100089A389A19AA19E8F8D8F8D8D9E8D0197F0
:10392000F1F79E8F8D8F0E94E10C80E090E0AAE776
:10393000B3E4898F9A8FAB8FBC8F698D7A8D8B8D15
:103940009C8D20E030E04AE753E40E941F02DC0136
:10395000CB018D8B9E8BAF8BB88F6D897E898F89C4
:10396000988D20E030E040E85FE30E9479038823EF
:103970002CF481E090E09C8B8B8B3FC06D897E891D
:103980008F89988D20E03FEF4FE757E40E9419039D
:1039900018164CF5698D7A8D8B8D9C8D20E030E06A
:1039A00040E251E40E941F02DC01CB01BC01CD01C9
:1039B0000E944900DC01CB019C8B8B8B0FC089E1FD
:1039C00090E09A8B898B89899A890197F1F79A8B74
:1039D000898B8B899C8901979C8B8B8B8B899C898C
:1039E000009769F714C06D897E898F89988D0E9430
:1039F0004900DC01CB019C8B8B8B8B899C89988B3C
:103A00008F878F8598890197F1F7988B8F8780E64C
:103A100090E00E948C0C80E090E0AAE7B3E48B87F2
:103A20009C87AD87BE876B857C858D859E8520E0D4
:103A300030E04AE753E40E941F02DC01CB018F8390
:103A40009887A987BA876F81788589859A8520E0CC
:103A500030E040E85FE30E94790388232CF481E0A2
:103A600090E09E838D833FC06F81788589859A859C
:103A700020E03FEF4FE757E40E94190318164CF57A
:103A80006B857C858D859E8520E030E040E251E4A9
:103A90000E941F02DC01CB01BC01CD010E94490044
:103AA000DC01CB019E838D830FC089E190E09C8374
:103AB0008B838B819C810197F1F79C838B838D8114
:103AC0009E8101979E838D838D819E81009769F7EA
:103AD00014C06F81788589859A850E944900DC0130
:103AE000CB019E838D838D819E819A838983898179
:103AF0009A810197F1F79A83898381E060E00E94BF
:103B00003F0C89E690E00E948C0C8091E9008F5F69
:103B10008093E9001092EB00CA5BDF4F0FB6F89478
:103B2000DEBF0FBECDBFCF91DF911F910F910895E2
:103B30002F923F924F925F926F927F928F929F92BD
:103B4000AF92BF92CF92DF92EF92FF920F931F93AB
:103B5000CF93DF93CDB7DEB7CA1BDB0B0FB6F8945C
:103B6000DEBF0FBECDBF09942A88398848885F849C
:103B70006E847D848C849B84AA84B984C884DF800D
:103B8000EE80FD800C811B81AA81B981CE0FD11DF1
:103B90000FB6F894DEBF0FBECDBFED010895FB0157
:103BA0009F01E8944230C4F04532B4F44A3029F41D
:103BB00097FB1EF4909581959F4F642F77270E9465
:103BC000001E805D8A330CF0895D8193CB010097E4
:103BD000A1F716F45DE251931082C9010C94F01D17
:103BE000DC01FC01672F71917723E1F7329704C064
:103BF0007C916D9370836291AE17BF07C8F30895EF
:103C0000AA1BBB1B51E107C0AA1FBB1FA617B70702
:103C100010F0A61BB70B881F991F5A95A9F780951E
:0C3C20009095BC01CD010895F894FFCFF1
:103C2C004341525F49443A20004E4F5F4F465F4339
:103C3C004152533A2000416363657373204E6F7495
:103C4C0020416C6C6F776564004E6F742045786909
:103C5C0073740041636365737320416C6C6F77659B
:103C6C0064002E2E2E2E2E4F70656E696E672E2ED2
:103C7C002E2E2E00000000000000000001414647DF
:103C8C0033343500414344313238004446593536DB
:103C9C0037004148473435370046484B37393800F0
:00000001FF
