:100000000C942A000C943F000C943F000C943F0089
:100010000C943F000C943F000C943F000C943F0064
:100020000C943F000C943F000C943F000C943F0054
:100030000C943F000C943F000C943F000C943F0044
:100040000C943F000C943F000C943F000C943F0034
:100050000C943F0011241FBECFE5D4E0DEBFCDBF1E
:1000600010E0A0E6B0E0EEE7FBE002C005900D92E4
:10007000AE3DB107D9F70E9426030C94BD050C9440
:1000800000004423D1F58130A1F0813030F082307E
:10009000E1F0833009F067C024C02AB381E090E02A
:1000A00002C0880F991F6A95E2F7809582238ABB68
:1000B000089527B381E090E002C0880F991F6A95E8
:1000C000E2F78095822387BB089524B381E090E016
:1000D00002C0880F991F6A95E2F78095822384BB3E
:1000E000089521B381E090E002C0880F991F6A95BE
:1000F000E2F78095822381BB08954130A1F58130DC
:1001000091F0813028F08230C9F0833061F521C050
:100110002AB381E090E002C0880F991F6A95E2F748
:10012000282B2ABB089527B381E090E002C0880FF6
:10013000991F6A95E2F7282B27BB089524B381E025
:1001400090E002C0880F991F6A95E2F7282B24BB24
:10015000089521B381E090E002C0880F991F6A954D
:10016000E2F7282B21BB08954130B1F5813099F099
:10017000813030F08230D1F0833009F067C021C087
:100180002BB381E090E002C0880F991F6A95E2F7D7
:10019000282B2BBB089528B381E090E002C0880F84
:1001A000991F6A95E2F7282B28BB089525B381E0B3
:1001B00090E002C0880F991F6A95E2F7282B25BBB3
:1001C000089522B381E090E002C0880F991F6A95DC
:1001D000E2F7282B22BB08954423C1F5813099F022
:1001E000813028F08230D9F0833081F524C02BB3E0
:1001F00081E090E002C0880F991F6A95E2F7809530
:1002000082238BBB089528B381E090E002C0880F61
:10021000991F6A95E2F78095822388BB089525B3DC
:1002200081E090E002C0880F991F6A95E2F78095FF
:10023000822385BB089522B381E090E002C0880F3D
:10024000991F6A95E2F78095822382BB0895FA018F
:10025000813049F0813028F0823039F08330D1F498
:100260000FC029B303C026B301C023B381E090E0DF
:1002700002C0880F991F6A95E2F72823208308950A
:1002800020B381E090E002C0880F991F6A95E2F7E1
:10029000282320830895662389F4813049F0813032
:1002A00028F0823039F08330F9F406C01ABA089584
:1002B00017BA089514BA089511BA08956130A1F4D7
:1002C000813051F0813028F0823049F0833061F480
:1002D00009C08FEF8ABB08958FEF87BB08958FEF1A
:1002E00084BB08958FEF81BB0895813049F0813040
:1002F00028F0823039F0833041F406C06BBB08959A
:1003000068BB089565BB089562BB0895FB01813009
:1003100049F0813028F0823039F0833051F407C041
:1003200089B303C086B301C083B38083089580B3CB
:10033000808308951F93182F82E060E041E00E94BF
:10034000B40082E061E040E00E94B40080E0612FF0
:100350000E94750182E062E041E00E94B40084EFF7
:1003600091E00197F1F782E062E040E00E94B40082
:100370001F9108951F93182F82E060E040E00E94D3
:10038000B40082E061E040E00E94B40080E0612FB0
:100390000E94750182E062E041E00E94B40084EFB7
:1003A00091E00197F1F782E062E040E00E94B40042
:1003B0001F91089581E00E94BA0181E08093DD00E1
:1003C00008951F93162F882319F0813089F407C0F0
:1003D000603170F4862F80580E94BA0107C06031E6
:1003E00038F4862F80540E94BA011F5E1093DD00FE
:1003F0001F910895EF92FF921F93CF93DF937C019B
:1004000010E00AC0103121F481E060E00E94E101B7
:1004100088810E949A011F5FE701C10FD11D888169
:10042000882381F7DF91CF911F91FF90EF9008957E
:100430000F931F93DF93CF93CDB7DEB760970FB6BF
:10044000F894DEBF0FBECDBFDC01CB018E010F5F84
:100450001F4FB8014AE050E00E947805C8010E9491
:10046000FA0160960FB6F894DEBF0FBECDBFCF91F4
:10047000DF911F910F9108950F931F938C01862F89
:10048000642F0E94E101C8010E94FA011F910F919F
:10049000089580E197E20197F1F788E30E94BA019D
:1004A0008CE00E94BA0181E00E94BA0108956C9A22
:1004B000442319F0413021F402C06B9801C06B9ABB
:1004C000662319F0613021F402C06A9801C06A9A6B
:1004D0008330C1F0843028F4813071F0823080F4B0
:1004E00009C08530A1F0853080F0863099F08730E2
:1004F000B1F412C0689801C0689A699870980FC0EA
:10050000689801C0689A699AF9CF689801C0689A9A
:10051000699804C0689801C0689A699A709A6E9A3E
:1005200008956C98662319F0613021F402C06B982D
:1005300001C06B9A882319F0813021F402C06A98B7
:1005400001C06A9A6E9A08958FB9779BFECF8FB1DA
:1005500008958FB580688FBD8FB58F7B8FBD8FB5A8
:100560008E7F8FBD8FB582608FBD8FB588608FBD48
:100570008FB580618FBD8EB5887F8EBD8EB5826F41
:100580008EBD089597BD86BD08959BBD8ABD089513
:100590005D9BFECF8CB908955F9BFECF8CB1089513
:1005A00020E004C05D9BFECFECB92F5FFC01E20FA1
:1005B000F11DE081EE23B1F70895009711F483E077
:1005C0000895FC0190E005C05F9BFECF8CB1819344
:1005D0009F5F9617C8F381E00895539A549A81302B
:1005E00011F488E801C080E8613049F0613028F0FA
:1005F000623041F0633051F408C08F7C07C08061E5
:100600008F7D04C08F7E806201C08063423091F094
:10061000433028F4442341F0413099F407C043307B
:1006200061F0473071F40BC0897F02C082608B7F1C
:10063000529807C08D7F8460FBCF8660F9CF8660BB
:10064000529A8F7B80BD83E389B908952F923F92A0
:100650004F925F926F927F928F929F92AF92BF92D2
:10066000CF92DF92EF92FF920F931F93DF93CF937E
:10067000CDB7DEB7C055D0400FB6F894DEBF0FBE81
:10068000CDBFDE011196ECE9F0E08DE001900D9216
:100690008150E1F7DE011E96E9EAF0E08DE001907D
:1006A0000D928150E1F7DE015B96E6EBF0E08DE024
:1006B00001900D928150E1F7DE019896E3ECF0E0B5
:1006C0008DE001900D928150E1F7DE01D596E0EDCD
:1006D000F0E08DE001900D928150E1F781E064E05F
:1006E00040E00E94410081E065E040E00E9441005E
:1006F00081E066E041E00E94410081E067E040E087
:100700000E94410083E061E041E00E94410080E0FE
:1007100061E00E944B0182E060E041E00E94410004
:1007200082E061E041E00E94410082E062E041E05D
:100730000E94410083E065E041E00E94410081E0C9
:1007400060E041E00E94410080E060E00E94910290
:1007500080E060E043E00E94ED020E9449020E94B6
:10076000A9028FE19EE40E94C20284E294EF019705
:10077000F1F780E690E00E94FA0100E052E4C52E15
:10078000D12CCC0EDD1E1E010894211C311C44E22C
:10079000A42E44EFB42E39E1E32EF12C2BE1822E6E
:1007A000912C8C0E9D1E98E2692E712C6C0E7D1E74
:1007B00085E3482E512C4C0E5D1E01C000E010E078
:1007C00008C08AE00E94A402F601E10FF11D8083B7
:1007D0001F5F1C30B0F31C3011F490E009C010E032
:1007E000F0CFAC0DBD1D8C918E1709F40F5F9F5F8C
:1007F000A92FB0E0F101EA0FFB1FE081EE2389F79A
:100800000C3019F020E090E03AC089E690E00E94B8
:10081000D0028DE00E94C802C5010197F1F781E086
:1008200060E00E94E101C6010E94FA0180E090E0D0
:100830000E94C50280E593ECF7013197F1F701972B
:10084000D9F78EEE92E00E94C5028FEF9FEFF7017D
:100850003197F1F70197D9F78AEF90E00E94C5022E
:100860008FEF9FEFF7013197F1F70197D9F7A6CFF7
:10087000AC0DBD1D8C918E1709F49F5F2F5FA22FC9
:10088000B0E0EEE0F0E0EC0FFD1FEA0FFB1FE081AF
:10089000EE2371F79C3019F020E090E03AC089E631
:1008A00090E00E94D0028DE00E94C802C50101972D
:1008B000F1F781E060E00E94E101C6010E94FA01C7
:1008C00080E090E00E94C50280E593ECF70131974B
:1008D000F1F70197D9F78EEE92E00E94C5028FEFF3
:1008E0009FEFF7013197F1F70197D9F78AEF90E081
:1008F0000E94C5028FEF9FEFF7013197F1F7019743
:10090000D9F75CCFAC0DBD1D8C918E1709F49F5F9C
:100910002F5FA22FB0E0F401EA0FFB1FE081EE236E
:1009200089F79C3019F020E090E03AC089E690E029
:100930000E94D0028DE00E94C802C5010197F1F724
:1009400081E060E00E94E101C6010E94FA0180E0BE
:1009500090E00E94C50280E593ECF7013197F1F732
:100960000197D9F78EEE92E00E94C5028FEF9FEFBC
:10097000F7013197F1F70197D9F78AEF90E00E94DC
:10098000C5028FEF9FEFF7013197F1F70197D9F784
:1009900015CFAC0DBD1D8C918E1709F49F5F2F5F95
:1009A000A22FB0E0F301EA0FFB1FE081EE2389F7ED
:1009B0009C3019F090E000E03AC089E690E00E9497
:1009C000D0028DE00E94C802C5010197F1F781E0D5
:1009D00060E00E94E101C6010E94FA0180E090E01F
:1009E0000E94C50280E593ECF7013197F1F701977A
:1009F000D9F78EEE92E00E94C5028FEF9FEFF701CC
:100A00003197F1F70197D9F78AEF90E00E94C5027C
:100A10008FEF9FEFF7013197F1F70197D9F7CECE1E
:100A2000AC0DBD1D8C918E1709F40F5F9F5FA92F30
:100A3000B0E0F201EA0FFB1FE081EE2389F70C30F2
:100A400099F589E690E00E94D0028DE00E94C802EC
:100A5000C5010197F1F781E060E00E94E101C60164
:100A60000E94FA0180E090E00E94C50280E593ECCC
:100A7000F7013197F1F70197D9F78EEE92E00E94D6
:100A8000C5028FEF9FEFF7013197F1F70197D9F783
:100A90008AEF90E00E94C5028FEF9FEFF701319738
:100AA000F1F70197D9F78ACE88E790E00E94D0024B
:100AB0008DE00E94C802C5010197F1F781E060E076
:100AC0000E94E1018BE890E00E94FA0181E060E081
:100AD00041E00E94B40080E593ECF7013197F1F713
:100AE0000197D9F781E060E040E00E94B40067CE52
:100AF000FB019F01E8944230C4F04532B4F44A301F
:100B000029F497FB1EF4909581959F4F642F7727CA
:100B10000E94A905805D8A330CF0895D8193CB0129
:100B20000097A1F716F45DE251931082C9010C946D
:100B30009905DC01FC01672F71917723E1F732976A
:100B400004C07C916D9370836291AE17BF07C8F3A8
:100B50000895AA1BBB1B51E107C0AA1FBB1FA61704
:100B6000B70710F0A61BB70B881F991F5A95A9F756
:0E0B700080959095BC01CD010895F894FFCFBB
:100B7E004341525F49443A200041636365737320D9
:100B8E00416C6C6F77656400416363657373204ECF
:100B9E006F7420416C6C6F776564004361722049FD
:100BAE0044204E6F7420457869737400415331327E
:100BBE0035345941313945380041433132333447A8
:100BCE0041313945380041463139333744463139A0
:100BDE004538004148313235374B523139453800AE
:0E0BEE00414A3136333744433139453800012E
:00000001FF
